:020000040800F2
:10000000E0AE0020CD010008132600086921000899
:100010001126000881040008092A000800000000D9
:10002000000000000000000000000000172600088B
:100030004B050008000000001526000819260008DE
:10004000E7010008E7010008E7010008E7010008F0
:10005000E7010008E7010008E7010008E7010008E0
:10006000E7010008E7010008E7010008D9040008DB
:10007000E5040008F1040008E7010008FD04000899
:100080000905000815050008E7010008E701000858
:10009000FD290008C1040008E7010008E701000885
:1000A000E7010008E7010008E7010008E701000890
:1000B000E7010008E7010008E7010008E701000880
:1000C000E7010008E7010008E7010008E701000870
:1000D000E7010008E7010008E7010008E701000860
:1000E000E7010008E7010008E7010008E701000850
:1000F000E7010008E7010008E7010008E701000840
:10010000E7010008E7010008E7010008E70100082F
:10011000E7010008E7010008E7010008E70100081F
:10012000E7010008E7010008E7010008E70100080F
:1001300000F002F800F03AF80AA090E8000C8244BF
:100140008344AAF10107DA4501D100F02FF8AFF29C
:10015000090EBAE80F0013F0010F18BFFB1A43F0A5
:10016000010318472442000044420000103A24BF13
:1001700078C878C1FAD8520724BF30C830C144BF0C
:1001800004680C607047000000230024002500264E
:10019000103A28BF78C1FBD8520728BF30C148BFEA
:1001A0000B6070471FB51FBD10B510BD00F058F8AB
:1001B0001146FFF7F7FF03F03BF900F076F803B4C0
:1001C000FFF7F2FF03BC00F07FF80000094880470A
:1001D00009480047FEE7FEE7FEE7FEE7FEE7FEE729
:1001E000FEE7FEE7FEE7FEE704480549054A064B41
:1001F000704700007B26000831010008E0A80020BD
:10020000E0AE0020E0AA0020E0AA00204FF00002AB
:1002100000B5134694469646203922BFA0E80C50FC
:10022000A0E80C50B1F12001BFF4F7AF090728BFD7
:10023000A0E80C5048BF0CC05DF804EB890028BF53
:1002400040F8042B08BF704748BF20F8022B11F07C
:10025000804F18BF00F8012B7047704770477047F8
:10026000754600F02BF8AE4605006946534620F06F
:100270000700854618B020B5FFF7B6FFBDE820405F
:100280004FF000064FF000074FF000084FF0000B52
:1002900021F00701AC46ACE8C009ACE8C009ACE805
:1002A000C009ACE8C0098D46704710B50446AFF3ED
:1002B00000802046BDE81040FFF781BF004870472E
:1002C0007CA800207047000001491820ABBEFEE763
:1002D0002600020000214171017081704170C170DF
:1002E00001718171C1714173017281724172C17278
:1002F00001738173C1734175017481744174C17458
:1003000001758175C1754177017681764176C17637
:1003100001778177C17780F8251080F8201080F868
:10032000221080F8211080F8231080F8241080F823
:10033000261080F8271070470749064808230A6AE4
:100340000260496A41600146012240F2051000F056
:1003500069B800003400002053A800202F4B10B5CE
:10036000192159812E4A03F10E01B0F5267F37D0AD
:1003700011DCA0F50070953847D001283BD0022849
:1003800008D1002000EBC0030B441478401C9C7083
:100390000528F7DB10BDA0F50070993815D0672847
:1003A00008D06C28F6D11D48323003F039F800200F
:1003B000188110BD5FF0000000EBC0030B441478FF
:1003C000401C1C710528F7DB10BD92F800200020AE
:1003D00000EBC0030B44401C1A720528F8DB10BD6B
:1003E0005FF0000000EBC0030B441478401CDC718C
:1003F0000528F7DB10BD002000EBC0030B44147888
:10040000401CDC700528F7DB10BD00EBC0030B447B
:100410001478401C5C700528F7DB10BD18A800207C
:100420002C00002030B589B0002402940090CDE962
:10043000034308788DF8180048788DF819008878FB
:100440008DF81A00C8788DF81B0008798DF81C000B
:1004500048798DF81D0088798DF81E00C8798DF8CF
:100460001F00012A06D108AB6946044806AA00F01D
:1004700081F8054609B0284630BD00005C00002028
:10048000FEE7000000B58BB000200121039004902E
:10049000CDE90810019002900090CDE90601059089
:1004A0006946064800F0CAF80221044800F050F8F6
:1004B000024800F09DFB0BB000BD00005C00002076
:1004C000014800F0A7B900005C0000200149FFF7D7
:1004D00045BF00002C000020014800F055BC000082
:1004E000F8020020014800F04FBC0000A4010020E9
:1004F000014800F049BC0000E8010020014800F07C
:1005000043BC00002C020020014800F03DBC00006C
:10051000B4020020014800F037BC00007002002047
:1005200030B590F840500124AC40C56B6C60046855
:1005300063604368102B036803D099600068C26051
:1005400030BD9A600068C16030BD704772B6FEE78A
:1005500090F82020012A07D0022A05D0416A41F4F0
:100560008021416201207047006842690A4342616C
:1005700000207047F0B590F820500468A468012D61
:1005800005D0022D03D0416A41F4802153E014F0DC
:10059000406F01D1E5004BD5C4F30164022C03D9AF
:1005A000416A41F4000146E00125A5401D608D68C7
:1005B0004FF4C0739DB1CE6835434E6845EAC60519
:1005C000066803EB0417F5514FF4C275076805EB95
:1005D00004150E697E51097D012905D009E00E88B8
:1005E000CD6845EA4655EBE701684E5946F48076FA
:1005F0004E511179D2F805504FF4C67641EA0525DF
:10060000016806EB04168D511178D2F801204FF4E1
:10061000C47541EA0221026805EB041551510068D6
:1006200003EB0411425842F0010242500020F0BD99
:10063000416A41F4001141620120F0BD10B590F80B
:1006400020300268012B07D0022B05D0416A41F40B
:1006500080214162012010BDD2F8000240F001006B
:10066000C2F80002087D00F01F0301209840D2F874
:100670001C328343C2F81C32CB69B3B9D2F80C32B6
:100680008343C2F80C328C894B6864F31F434C6976
:1006900002EBC404C4F840320C890B6864F31F43B6
:1006A0004C6902EBC404C4F84432CB69012B16D167
:1006B000D2F80C320343C2F80C320C884B6864F356
:1006C0001F434C6902EBC404C4F840320C89CB6868
:1006D00064F31F434C6902EBC404C4F844328B69D1
:1006E000002BD2F804320FD053EA0003C2F80432D0
:1006F0000B69002BD2F8143208D00343C2F814322D
:10070000096A012904D008E08343EFE78343F5E752
:10071000D2F81C120143C2F81C12D2F8000220F0D9
:100720000100C2F80002002010BD704730B590F8FB
:100730002040012C05D0022C03D0416A41F48021D5
:100740005DE00468002955D02469A40754D04FF413
:10075000D874056804EB01142D5915F00405956053
:1007600005682D594ED0ED08556005682C5904F0E8
:100770000204D4604FF4DA74056804EB01142D59B7
:1007800005F00F05156105682D59C5F3072595611D
:1007900005682C59240C54614FF4DC72046802EB98
:1007A0000112A4581C700468A458240A5C700468E0
:1007B000A458240C9C700468A258120EDA704FF4EE
:1007C000DE72046802EB0112A4581C710468A4587C
:1007D000240A5C710468A458240C9C710468A25813
:1007E000120EDA71006881B1016941F020010161E6
:1007F000002030BDE468A8E7416A41F4001141627D
:10080000012030BD6D0D1560AFE7C16841F02001DA
:10081000C160EDE72DE9F05F0546006800244669F8
:10082000D0F804908768D0F80CB0D0F810A0D0F8B9
:100830001880F10748D0F90714D001218160B8076A
:1008400003D5284600F001FA0CE0780702D54FF4F2
:10085000006407E0380702D54FF4805402E02846D0
:1008600000F0F2F9F80516D529684FF48070886019
:10087000B80503D5284600F0EAF90CE0780502D562
:1008800044F4005407E0380502D544F4804402E003
:10089000284600F0DBF9F80316D529684FF48030BC
:1008A0008860B80303D5284600F0D3F90CE078033C
:1008B00002D544F4004407E0380302D544F4803400
:1008C00002E0284600F0C4F9300707D55FEACB60A4
:1008D00004D52968102044F40074C86070074FF0F4
:1008E000080707D55FEA0B7004D52868C76028465B
:1008F00000F062F9B00706D52868C068800702D00A
:10090000284600F05BF9700607D55FEACA6004D597
:100910002968102044F480640861B00607D55FEAB6
:100920000A7004D528680761284600F05DF9F006D2
:1009300006D528680069800702D0284600F055F9DE
:10094000B00308D55FEAC96005D529681020486062
:10095000284600F04BF9F00307D55FEA097004D58B
:1009600028684760284600F075F9300446D55FEAEC
:10097000497040D5F00504D55FEAC87001D044F055
:100980000104B00504D55FEA887001D544F0020483
:10099000700504D55FEA487001D544F004043005C1
:1009A00029D518F0700F26D008F07000402815D017
:1009B00006DC102809D020280AD0302816D10AE0F9
:1009C00050280ED0602811D10EE044F008040DE04C
:1009D00044F010040AE044F0200407E044F040042E
:1009E00004E044F0800401E044F4807428688169E4
:1009F00021F070018161296804204860002C05D035
:100A0000686A204368622846FFF78FFEBDE8F09FC2
:100A100070B5040003D094F8200010B104E0012068
:100A200070BD204600F082F82068016841F00101A5
:100A3000016000F057FC0546052604E000F052FC7A
:100A4000401B0A2811D820684068C007F6D02068EB
:100A5000016821F00201016000F044FC05460BE052
:100A600000F040FC401B0A2806D9606A40F40030C0
:100A7000606284F82060D2E7206840688007EFD485
:100A8000207E0128206801683DD021F080010160AE
:100A9000607E01282068016838D021F040010160A3
:100AA000A07E01282068016833D021F02001016078
:100AB000E07E0128206801682ED041F0100101601D
:100AC000207F01282068016829D021F008010160F9
:100AD000607F01282068016824D021F004010160B2
:100AE000D4E902010843D4E90412114308436168C0
:100AF000491E08432168C86100206062012084F813
:100B00002000002070BD41F08001C0E741F04001AD
:100B1000C5E741F02001CAE721F01001CFE741F01D
:100B20000801D4E741F00401D9E7000010B586B010
:100B30000021009101910291039100681B498842B4
:100B400032D11B48C16941F00071C161C16901F036
:100B500000710491816941F0040181618069154C43
:100B600000F0040004904FF40060009069462046B5
:100B700000F0B6FAA0140090022001900320039028
:100B80006946204600F0ACFA00221146142000F01D
:100B900015FC142000F004FC00220521152000F0B3
:100BA0000DFC152000F0FCFB06B010BD00640040F9
:100BB00000100240000801407047000010B50749CE
:100BC00002688A4209D1064B064A0021FFF7AEFDB2
:100BD000044803490068FFF779FC10BD0064004039
:100BE0002C000020FCA700207047704770470000D1
:100BF00070B5044690F82000012804D0606A40F4E3
:100C00000020606218E0022084F82000206801685B
:100C100021F00101016000F065FB05460EE000BF18
:100C200000F060FB401B0A2808D9606A40F40030DD
:100C30006062052084F82000012070BD20684068B3
:100C4000C007EDD1606270BD704770477047704754
:100C500070477047704700002DE9F05F90F8211051
:100C60000024022903D004218163012485E0016866
:100C70000A6822F00E020A6001680A6822F0010286
:100C80000A603F4E3E4FB215DFF8F4C0DFF8F09037
:100C9000DFF8ECA0DFF8E8B0DFF8E4E00168783FC7
:100CA00013011502ACF1640CA9F15009AAF13C0A38
:100CB000ABF1280BAEF1140E4FF48018B14227D9D6
:100CC000B9420ED0614512D049451DD0514518D0CA
:100CD000594518D0714501D1424615E0294EB1421F
:100CE00001D1012210E0274E1436B14201D1102269
:100CF0000AE0244E2836B14206D0224A3C329142C4
:100D000001D11A4600E02A461E49091F0A602BE05D
:100D1000B94213D0614517D0494522D051451DD065
:100D200059451DD0714501D142461AE0B14202D168
:100D30004FF0807215E0134EB14201D1012210E054
:100D4000104E1436B14201D110220AE00D4E283661
:100D5000B14206D00B4A3C32914201D11A4600E022
:100D60002A46074980394A60012180F82110002174
:100D700080F82010416B01B188472046BDE8F09F04
:100D800080000240080402402DE9F05FC16B0A6850
:100D900001680B68046C4FF0040808FA04F8844DED
:100DA000844E854FDFF814C2DFF81492DFF814A2E6
:100DB000DFF814B2DFF814E218EA020F65D05FEA38
:100DC000437862D50A68920603D40A6822F00402C6
:100DD0000A60DFF8F0814FF48062016808F11408BE
:100DE00013011402414524D9A9420DD0B1420FD0BC
:100DF000B9421AD0614515D0494515D0514501D1A8
:100E0000120312E0594501D104220EE0714501D1CF
:100E100040220AE06D4D1435A94206D06B4A2832B3
:100E2000914201D11A4600E022466749091F0A6033
:100E300029E0A94213D0B14215D0B94220D0614572
:100E40001BD049451BD0514502D14FF4800217E019
:100E5000414502D14FF0806212E0594501D1042290
:100E60000EE0714501D140220AE0584D1435A942E7
:100E700006D0564A2832914201D11A4600E0224655
:100E80004B4908394A60C16A71E04FF0020808FA1C
:100E900004F818EA020F70D05FEA83786DD50A680B
:100EA000920606D40A6822F00A020A60012180F83C
:100EB0002110DFF810814FF40072016808F1140866
:100EC00013011402414524D9A9420DD0B1420FD0DB
:100ED000B9421AD0614515D0494515D0514501D1C7
:100EE000120312E0594501D102220EE0714501D1F1
:100EF00020220AE0354D1435A94206D0334A283263
:100F0000914201D11A4600E022462F49091F0A608A
:100F100029E0A94213D0B14215D0B94220D0614591
:100F20001BD049451BD0514502D14FF4001217E0A8
:100F3000414502D14FF0007212E0594501D1022221
:100F40000EE0714501D120220AE0204D1435A9425E
:100F500006D01E4A2832914201D11A4600E02246AC
:100F6000134908394A60002180F82010816A00295D
:100F70001CD0BDE8F05F0847FFE70825A5401542F3
:100F800014D01A0712D50A6822F00E020A6090F8EF
:100F90004020C36B012101FA02F25A60816380F89C
:100FA0002110002180F82010016BE0E7BDE8F09FE0
:100FB000080002401C000240300002404400024091
:100FC000580002406C000240080402401C04024029
:100FD00030B560B11A4B026814219A4209D2194BFC
:100FE0001344B3FBF1F18900016417490AE00120C1
:100FF00030BD134B5B421344B3FBF1F18900016434
:101000000F490839C163022180F82110136843F6A3
:10101000F0718B43F0E901142143D0E902452C43E0
:1010200021430469214344692143846921431943CD
:10103000116000214163012242770177084630BDEB
:1010400008040240F8FFFDBF0000024070B50446EE
:1010500090F82000002501280CD0012084F8200001
:1010600094F821600020012E06D084F8200002258B
:10107000284670BD022070BD022684F82160A0635E
:101080002068066826F0010606602046FFF748FA49
:10109000E06A00282068016802D041F00E0106E0F5
:1010A00021F0040101602068016841F00A0101603B
:1010B0002068016841F001010160D9E770B504467C
:1010C00000F010F90546601C02D004480078044482
:1010D00000F008F9401BA042FAD370BD0C000020BC
:1010E0002DE9F84FDFF8C891002409F1040A0AF14C
:1010F000040B23460F270BF1040ED1E00125A54078
:1011000006EA0502AA4276D1DFF8A8C14E68A6EB2E
:101110000C0866452BD00DDC032E34D005DC36B32D
:10112000012E19D0022E2FD11BE0112E16D0122E17
:101130002AD119E0B8F5881F19D006DCB8F5803F30
:1011400015D0B8F5801F1FD111E0B8F5001F0ED0E3
:10115000B8F5041F18D10AE0CB6815E0CB681B1D59
:1011600012E0CB6808330FE0CB680C330CE08B68DF
:101170002BB1012B4FF0080303D0456104E0042399
:1011800002E0056100E00023FF2A01D8064601E0E5
:1011900000F104064FEA840501D9A5F12005D6F82F
:1011A000008007FA05FC28EA0C0803FA05F548EA6E
:1011B0000508C6F800804D68ED0070D53E4DAE695B
:1011C00046F00106AE61AD6924F0030605F00105A5
:1011D00000953A4D06EB050CDCF80850A607360FD3
:1011E00007FA06F825EA0805DFF8D480404503D160
:1011F0004FF0000825E052E0DFF8C880404502D1FA
:101200004FF001081DE0DFF8C080404502D14FF0EB
:10121000020816E0DFF8B480404502D14FF0030821
:101220000FE0DFF8AC80404502D14FF0040808E041
:10123000DFF8A080404502D14FF0050801E04FF0F3
:10124000060808FA06F848EA0508CCF808804D6850
:10125000D9F80060ED034D4601D5164300E09643F2
:101260002E604D68DAF80060AD03554601D516438F
:1012700000E096432E604D68DBF80060ED025D46AD
:1012800001D5164300E096432E604D68DEF80060FD
:10129000AD02754601D5164300E096432E60641CEE
:1012A0000A681646E2407FF429AFBDE8F88F0000D7
:1012B0000004014000001110001002400000014035
:1012C00000080140000C01400010014000140140E2
:1012D00000180140001C01408068084000D0012037
:1012E0007047000001488068704700000C00002033
:1012F0000248816802781144816070470C00002028
:10130000074810B5016841F010010160032000F0AA
:1013100075F80F2000F006F800F024F8002010BD4A
:101320000020024070B50D4D04464FF47A712878C4
:10133000B1FBF0F00A490968B1FBF0F000F0CCFA1B
:1013400048B9102C07D200222146501E00F036F872
:1013500000206C6070BD012070BD00000C000020FA
:10136000180000200C4808B5816941F00101816135
:10137000816901F001010091C16941F08051C161B1
:10138000C06900F0805000900448416821F0E0619D
:1013900041F00071416008BD0010024000000140B2
:1013A000002809DB00F01F02012191404009800064
:1013B00000F1E020C0F8001170470000F0B40E4BBF
:1013C0001B680C46C3F30223C3F10705042D00D9A3
:1013D0000425191D072901D2002300E0DB1E012688
:1013E00006FA05F1491E214099409E40761E16409E
:1013F0003143F0BC01F051BF0CED00E0064900F0B4
:10140000070208684FF6FF03184040EA0220034A2B
:1014100010430860704700000CED00E00000FA0582
:101420002DE9F0470F46050061D0434E306800F0CB
:101430000700B84209D2306820F007003843306016
:10144000306800F00700B84251D128683B4C810752
:1014500012D5400703D5606840F4E06060602878EA
:10146000000703D5606840F4605060606068A96858
:1014700020F0F000084360602878C00728D0686832
:10148000012810D02168022810D0890700292EDAFF
:10149000616821F0030101436160FFF723FF80468B
:1014A00041F288390DE021688903EFE78901EDE712
:1014B000FFF718FFA0EB0801494502D90320BDE85A
:1014C000F0876068696800F00C00B0EB810FEFD125
:1014D000306800F00700B8420BD9306820F00700F0
:1014E00038433060306800F00700B84201D0012076
:1014F000E5E72878400705D56068E96820F4E060F2
:10150000084360602878000706D56068296920F4E0
:10151000605040EAC100606000F018F86168084A55
:10152000C1F30311515CC8400649086006480068D1
:10153000FFF7F8FE0020C2E7002002400010024042
:1015400078430008180000201000002012A185B088
:101550000FC98DE80F0014A0144A00680490516868
:10156000134801F00C03042B10D0082B0ED1C1F34B
:101570008343C9031DF803000AD5516804AAC1F3C7
:101580004041515C0A4A5043B0FBF1F005B070474E
:1015900008494843FAE70000020304050607080962
:1015A0000A0B0C0D0E0F101001020000001002407B
:1015B00000127A0000093D002DE9F84F040070D0B8
:1015C0002078C04DC00749D06868C0F38100012869
:1015D00007D06868C0F38100022809D16868C00399
:1015E00006D52868800339D560680028E7D035E043
:1015F0006068B0F5803F0BD010B1B0F5A02F11D0CE
:10160000286820F480302860286820F4802002E0D8
:10161000286840F480302860606890B1FFF762FE6F
:1016200006460AE0286840F480202860F0E700BF02
:10163000FFF758FE801B642873D828688003F7D50D
:101640000CE0FFF74FFE064605E000BFFFF74AFE3D
:10165000801B6428F0D828688003F7D420789A4E3D
:1016600080074FF001094FF0000839D5686810F085
:101670000C0F07D06868C0F38100022809D16868A0
:10168000C00306D42868800714D52069012808D132
:1016900010E02069B0B1C6F80090FFF723FE0746BE
:1016A00005E00AE1FFF71EFEC01B0228C4D8286827
:1016B0008007F7D52868616920F0F80040EAC1008A
:1016C00028600DE0C6F80080FFF70CFE074604E036
:1016D000FFF708FEC01B022823D828688007F7D42C
:1016E000207800072CD57948A169D9B1C0F80090BD
:1016F000FFF7F8FD074604E0FFF7F4FDC01B0228E2
:101700000FD8686A8007F7D571484FF4FA5100681E
:10171000B0FBF1F0009000BF0098411E0091FAD29A
:101720000EE080E0C0F80080FFF7DCFD074604E033
:10173000FFF7D8FDC01B022875D8686A8007F7D468
:101740002078400760D5E8690027C00008D4E86920
:1017500040F08050E861E869012700F08050009077
:101760005C480168C90513D40168834641F480715F
:101770000160FFF7B7FD824606E000BFFFF7B2FD4C
:10178000A0EB0A0064284ED8DBF80000C005F5D5B0
:10179000E06801280AD008B1052813D0286A20F093
:1017A00001002862286A20F0040002E0286A40F064
:1017B00001002862E06841F2883B98B1FFF792FD92
:1017C00082460BE0286A40F004002862EEE700BF82
:1017D000FFF788FDA0EB0A0159455AD8286A80070F
:1017E000F6D50CE0FFF77EFD824605E0FFF77AFDB7
:1017F000A0EB0A0159454CD8286A8007F6D41FB1DE
:10180000E86920F08050E861E06988B36968C1F355
:101810008101022944D00228C6F8608004D0FFF775
:1018200061FD044638E034E0FFF75CFD074604E064
:10183000FFF758FDC01B02282BD828688001F7D479
:10184000206AB0F5803F05D16868A16820F40030B7
:1018500008436860D4E908010843696821F47411F9
:1018600008436860C6F86090FFF73CFD044606E058
:1018700025E000BFFFF736FD001B022809D82868C5
:101880008001F7D51BE000BFFFF72CFD001B0228ED
:1018900002D90320BDE8F88F28688001F4D40EE057
:1018A0000128F7D06868226A00F48031914204D19F
:1018B000616A00F47010884201D00120EAE700203C
:1018C000E8E700000010024000004242800442426B
:1018D000180000200070004010B5401EB0F1807F5D
:1018E00001D3012010BD4FF0E02460610F2160178B
:1018F00001F0D3FC0020A06107202061002010BD72
:1019000010B590F83C20012A22D0012280F83C201A
:10191000CA688C6822F4407222434C6822F48062C8
:1019200022430C6822F4006222430C6922F48052A4
:1019300022434C6922F400522243C969002322F455
:1019400080420A4301684A6480F83C30002010BDA0
:10195000022010BD70B590F83C20012A2CD0012443
:1019600080F83C40022280F83D2003685A689D6858
:1019700022F070060A6832435A60104B02689A429D
:101980000ED00F4B9A420BD0B2F1804F08D00D4BC6
:101990009A4205D00C4B9A4202D00C4B9A4204D189
:1019A000496825F080031943916080F83D4000218B
:1019B00080F83C10084670BD022070BD002C01402C
:1019C000003401400004004000080040000C0040CA
:1019D00010B5040003D094F83D0010B107E00120D9
:1019E00010BD002084F83C00204600F01FF80220C3
:1019F00084F83D00211D206800F040FE012084F89D
:101A0000460084F83E0084F83F0084F8400084F8E3
:101A1000410084F8420084F8430084F8440084F8CC
:101A2000450084F83D00002010BD00002DE9F84F6E
:101A300080220446DFF804C10568414B00275600A8
:101A4000D00020214FF010084FF4805E654533D15F
:101A50009D6945F400659D619B693B4D03F40063FE
:101A60000093384BC5E900380023C5E902328346AC
:101A7000C5E9046BC5E9061E92460F46F1462846A5
:101A8000FFF7A6FA08B1FEF761FD65626C622E4DA4
:101A90002C4844351430C5E900080020C5E9020A85
:101AA000C5E9046BC5E906792846FFF791FA08B144
:101AB000FEF74CFDA5623DE0B5F1804F3BD1DD69FD
:101AC00045F00105DD61DB691F4D03F00103009363
:101AD0001C4B88353C339146064605F1100C9A158F
:101AE0008B46C5F81CE08CE84408C5E90038C5E918
:101AF0000279F2462846FFF76BFA08B1FEF726FD99
:101B000065626C62104D0F48CC356430C5E9000841
:101B100005F110018015C5F81CA081E84108C5E950
:101B200002792846FFF754FA08B1FEF70FFDA562C7
:101B30006C6225636C62BDE8F88F0000002C0140E8
:101B4000001002401C000240A401002070B50446B1
:101B500090F83C00012817D0012584F83C50022061
:101B600084F83D002068826822F0770222F47F42E8
:101B700082600868502830D00DDC20284DD005DC6C
:101B800098B310283BD148E0022070BD302844D0E3
:101B9000402834D139E0602828D0702806D0B0F52C
:101BA000805F2CD0B0F5005F29D10AE0CB68D1E985
:101BB0000121206800F02AFE2068816841F0770149
:101BC00009E0CB68D1E90121206800F01FFE206800
:101BD000816841F48041816011E0CA6849682068E9
:101BE00000F0E8FE5021206807E016E0CA68496866
:101BF000206800F0F0FE6021206800F011FE84F8FB
:101C00003D50002084F83C0070BDCA6849682068D7
:101C100000F0D0FE40212068EFE722680146104620
:101C2000EBE7704710B586B0002100910191029159
:101C300003912A4C03682A4902222A48A3420AD166
:101C40008B6943F004038B61896901F004010491FD
:101C50004FF4407129E0B3F1804F1DD0224C402059
:101C6000A3422AD18B6943F010038B618969CDE9C6
:101C7000000201F01001CDE9032169461B48FFF77E
:101C80002FFA1B48416821F4406141F0E06141F4C2
:101C90004061416006B010BD8B6943F004038B6165
:101CA000896901F0040104910321CDE9001269461C
:101CB000CDF80C20FFF714FAECE70E4CA342E9D163
:101CC0008B6943F008038B618969CDE9000201F05B
:101CD0000801CDE9032169460748EBE7002C0140E4
:101CE00000100240000801400004004000100140C4
:101CF0000000014000080040000C014070B504469F
:101D000090F83C000D4601280AD0012084F83C00E0
:101D100042B1042A18D0082A2AD00C2A4DD139E021
:101D2000022070BD206800F083FD2068816941F0C9
:101D3000080181612068816921F0040181612068C6
:101D400081692A69114311E0206800F0A1FD206833
:101D5000816941F4006181612068816921F48061B9
:101D60008161206881692A6941EA0221816124E058
:101D7000206800F0C3FD2068C16941F00801C1611D
:101D80002068C16921F00401C1612068C1692A6924
:101D9000114311E0206800F0E5FD2068C16941F4BD
:101DA0000061C1612068C16921F48061C16120685E
:101DB000C1692A6941EA0221C161002084F83C001E
:101DC00070BD10B5040003D094F83D0010B107E0D9
:101DD000012010BD002084F83C00204600F01EF8D1
:101DE000022084F83D00211D206800F047FC0120FE
:101DF00084F8460084F83E0084F83F0084F84000F0
:101E000084F8410084F8420084F8430084F84400D8
:101E100084F8450084F83D00002010BD2DE9F04F06
:101E200085B0002700970197029703970546304A2F
:101E30000168304880264FF010084FF480794FF445
:101E4000806A4FF0200B91421DD1C16941F002011F
:101E5000C161C069294C00F0020004902648A760C7
:101E6000C4E900088014C4E906B004F10C0120465E
:101E700081E84006FFF7ACF808B1FEF767FB6C623B
:101E80006562AC632FE01E4A91422DD1C16941F0D9
:101E90000401C161C16901F004010491816941F04B
:101EA000080181618069694600F008000490022001
:101EB000CDE9006003901348FFF712F90F4C0E486C
:101EC00044346438A760C4E900088014C4E906B04B
:101ED00004F10C01204681E84006FFF779F808B1CB
:101EE000FEF734FB6C62656205B0BDE8F08F000060
:101EF00000040040001002406C000240B4020020C8
:101F000000080040000C0140704770472DE9F04187
:101F100017460D0004460CD0042D11D0082D16D004
:101F200094F84100022819D094F84100012818D0F3
:101F3000A2E094F83E00022810D094F83E00F5E7A5
:101F400094F83F00022809D094F83F00EEE794F897
:101F50004000022802D094F84000E7E70220BDE8E4
:101F6000F0810FB9002B5BD14749484E484A022007
:101F700045B1042D16D0082D24D084F841000C2D35
:101F80003AD16CE084F83E00606A8162606A39464A
:101F9000C662606A02632268606A3432FFF756F8EC
:101FA000F0BB1FE084F83F00A06A8162A06A394656
:101FB000C662A06A02632268A06A3832FFF746F858
:101FC00070BB14E084F84000E06A8162E06A394640
:101FD000C662E06A02632268E06A3C32FFF736F8C4
:101FE000F0B937E02068C16841F4007103E020686F
:101FF000C16841F48061C16001222946206800F077
:1020000083FB24492068244A884201D0904203D1AE
:10201000436C43F400434364206888420FD000E0DF
:102020002AE090420BD0B0F1804F08D01B49884283
:1020300005D01B49884202D01A49884204D18168E0
:1020400001F00701062903D0016841F00101016098
:10205000002084E72068C16841F40061CBE7206B71
:102060008162206B3946C662206B02632268206B56
:102070004032FEF7EBFF08B1012070E72068C1682D
:1020800041F48051B7E700002327000881270008AA
:10209000B9270008002C0140003401400004004032
:1020A00000080040000C004070B5044600680D00B8
:1020B00006D0042D0AD0082D3DD00C2D0DD140E0C6
:1020C000C16821F40071C160606A04E0C16821F454
:1020D0008061C160A06AFEF7BFFD0022294620682A
:1020E00000F012FB1E4B41F2111120688A10984239
:1020F00002D01C4B984209D1036A0B4206D1036AF5
:10210000134203D1436C23F4004343642068036A01
:102110000B4206D1016A114203D1016821F001018D
:10212000016001209DB1042D14D0082D15D084F834
:102130004100002070BDC16821F40061C160E06A07
:10214000C9E7C16821F48051C160206BC3E784F8FE
:102150003E00EEE784F83F00EBE784F84000E8E754
:10216000002C014000340140FEE70000F0B587B0CC
:1021700000206C46150601D51E2500E00F252554CC
:102180005206401C120E80B20828F3D300200A0623
:1021900001D51E2200E00F2225184906401C090E19
:1021A00080B22A720828F2D30020190601D51E2118
:1021B00000E00F212218401C117459060B0E80B24A
:1021C0000828F2D3234A00214FF49675002001EB32
:1021D0004103265C00EBC307401C80B222F8176065
:1021E0001828F6D3491C89B2A942EFD34FF4E15025
:1021F00000214FF4E85300BF22F81010401C80B2B9
:102200009842F9D3144C0020B4F9021001F056F8AA
:10221000B4F90210282001F051F8B4F9021050204E
:1022200001F04CF8B4F90210782001F047F8B4F945
:102230000210A02001F042F8B4F90210C82001F009
:102240003DF8B4F90210F02001F038F800F0B4FCC9
:1022500007B0F0BD3C0300201C0000200F4810B563
:102260000D4901600421416000214FF4802281600A
:10227000C0E90312D20042610176417601228276E2
:10228000C17601774277FEF7C3FB002803D0BDE893
:102290001040FEF75BB910BD006400405C000020F8
:1022A0001D4808B5416941F00101416140690022C2
:1022B00000F00100009011460B20FFF77FF80B2083
:1022C000FFF76EF8002211460C20FFF777F80C207C
:1022D000FFF766F8002211460D20FFF76FF80D207A
:1022E000FFF75EF8002211460F20FFF767F80F2076
:1022F000FFF756F8002211461020FFF75FF8102074
:10230000FFF74EF8002211461120FFF757F8BDE8FD
:1023100008401120FFF744B80010024070B586B0A5
:1023200000241F4801940394816941F010018161E8
:10233000816901F010010491816941F020018161FE
:10234000816901F020010491816941F004018161FA
:10235000816901F004010491816941F00801816102
:102360008069012500F00800049046F29F0000906B
:10237000694602950B48FEF7B3FE0420CDE9000440
:10238000094E694630460294FEF7AAFEF0208DE819
:10239000310069463046FEF7A3FE06B070BD00006E
:1023A00000100240001001400008014010B596B036
:1023B00000240F9410941194129413941C216846D5
:1023C0001494FDF723FF202107A8FDF71FFF2D48D8
:1023D0002B4901600121C0E901142C21C0E903143B
:1023E00044618461FFF7F4FA08B1FEF7AFF84FF4E7
:1023F00080500F900FA92348FFF7A8FB08B1FEF704
:10240000A5F82048FFF7DDFC08B1FEF79FF813940C
:1024100013A91C481494FFF79DFA08B1FEF796F82B
:10242000602000901420CDE90104039404940594E5
:102430000022694613480694FFF760FC08B1FEF7D6
:1024400085F8042269460F480194FFF757FC08B14C
:10245000FEF77CF80794089409944FF400500A940E
:10246000CDE90B4007A907480E94FFF749FA08B1D8
:10247000FEF76CF80348FFF7D5FB16B010BD00005F
:10248000002C01408400002010B58EB00024079479
:10249000089409940A940B941C2168460C94FDF747
:1024A000B5FE22484FF0804101600121C0E90114CE
:1024B0002C21C0E903148461FFF78AFA08B1FEF702
:1024C00045F84FF48050079007A91848FFF73EFBE6
:1024D00008B1FEF73BF81548FFF773FC08B1FEF7AB
:1024E00035F80B940BA911480C94FFF733FA08B197
:1024F000FEF72CF8602000900F20CDE901040022A7
:1025000069460A480494FFF7F9FB08B1FEF71EF884
:102510000422694605480194FFF7F0FB08B1FEF775
:1025200015F80248FFF77EFB0EB010BDCC0000206E
:1025300010B58AB0002407941C2168460894FDF762
:1025400065FE1648144901600121C0E901142C21DF
:10255000C0E903148461FFF734FC08B1FDF7F6FF0E
:10256000079407A90D480894FFF7F4F908B1FDF79F
:10257000EDFF602000901420CDE90104002269469F
:1025800006480494FFF7BAFB08B1FDF7DFFF0348E4
:10259000FFF748FB0AB010BD000400401401002002
:1025A00010B58AB0002407941C2168460894FDF7F2
:1025B0002DFE1648144901600121C0E901142D21A6
:1025C000C0E903148461FFF7FCFB08B1FDF7BEFF0F
:1025D000079407A90D480894FFF7BCF908B1FDF767
:1025E000B5FF6020CDE90004029400226946074847
:1025F0000494FFF783FB08B1FDF7A8FF0348FFF73A
:1026000011FB0AB010BD0000000800405C01002072
:10261000FEE7FEE770477047FEF76ABE30B58FB041
:1026200028216846FDF7F2FD14210AA8FDF7EEFD0A
:1026300001210804CDE90010002402940225049130
:10264000CDE907504FF4E01009906846FEF7B4FF5B
:1026500008B172B6FEE70F20CDE90A054FF480609D
:10266000CDE90C4002210AA80E94FEF7D9FE0028FD
:1026700001D072B6FEE70FB030BD7047F0B502680A
:102680001C4B1D4D1D4E1E4F1E4C4FF0804C984252
:1026900009D0A04207D0604505D0A84203D0B0427F
:1026A00001D0B84204D122F0700E4A6842EA0E020C
:1026B000984209D0A04207D0604505D0A84203D077
:1026C000B04201D0B84203D122F44075CA682A430F
:1026D0004D6922F080022A4302608A68C2620A6859
:1026E0008262984201D0A04201D1096901630121AF
:1026F0004161F0BD002C0140000400400008004092
:10270000000C00400034014010B501F01F0301210E
:10271000046A99408C430462016A9A401143016241
:1027200010BD10B5446A0121626A824205D1217749
:102730008069F8B984F83E101CE0A26A824206D192
:10274000022222778069A8B984F83F1012E0E26A79
:10275000824206D104222277806958B984F8401059
:1027600008E0226B824205D108222277806908B9ED
:1027700084F841102046FFF7C7FB0020207710BDEA
:1027800010B5446A616A814201D101200DE0A16A5D
:10279000814201D1022008E0E16A814201D1042096
:1027A00003E0216B814201D1082020772046FFF70A
:1027B000ACFB0020207710BD10B5446A0121626A8D
:1027C000824203D1217784F83E1019E0A26A824246
:1027D00004D10220207784F83F1011E0E26A82429F
:1027E00004D10420207784F8401009E0226B824253
:1027F00004D10820207784F8411001E084F83D10CE
:102800002046FFF70EFA0020207710BD10B584682F
:1028100042EA032224F47F440A432243826010BD2B
:10282000826822F070020A4342F00701816070471B
:10283000F0B5026A22F001020262036A426884690A
:10284000124E24F073050C682C4323F002058B68AC
:102850002B430D4DA84201D0B04205D123F008070B
:10286000CB683B4323F00403A84201D0B04205D11A
:102870004D6922F4407215438A692A43426084619B
:10288000496841630362F0BD002C014000340140FF
:10289000F0B5026A22F010020262026A436884699B
:1028A0000D6824F4E64444EA05248D6822F02002F1
:1028B00042EA05120F4D104EA84201D0B04206D197
:1028C000CF6822F0800242EA071222F04002A842BA
:1028D00001D0B04207D14D6923F4406343EA850338
:1028E0008D6943EA850343608461496881630262BC
:1028F000F0BD0000002C014000340140F0B5026A38
:1029000022F480720262026A4368C46922F400728F
:1029100024F073050C68124E2C438D6842EA0522A0
:102920000E4DA84201D0B04206D1CF6822F4006219
:1029300042EA072222F48062A84201D0B04207D1C5
:102940004D6923F4405343EA05138D6943EA0513A7
:102950004360C4614968C1630262F0BD002C01405C
:102960000034014030B5026A22F480520262046AE7
:102970004268C3690D6823F4E64343EA05238D6882
:1029800024F4005444EA0534084DA84202D0084D0E
:10299000A84204D14D6922F4804242EA8512426085
:1029A000C36149680164046230BD0000002C01402D
:1029B0000034014010B5036A046A24F00104046283
:1029C000846924F0F00444EA021423F00A020A4362
:1029D0008461026210BD10B5036A23F01003036224
:1029E0008369046A23F4704343EA023224F0A003AB
:1029F00043EA01118261016210BD00000148FDF748
:102A000009BF00005C000020FEE7090441EA002045
:102A1000104370472DE9F04116468846B0F5897F8E
:102A200016D80C4F002400EB40051A4631464046AC
:102A3000FFF7EBFFA040000201D51E2000E00F20B1
:102A400004EBC501641CE4B227F81100182CECD388
:102A5000BDE8F0817C6200202DE9F04116468846F1
:102A60004D2816D20C4F002400EB40051A46314683
:102A70004046FFF7CAFFA040000201D51E2000E03B
:102A80000F2004EBC501641CE4B227F81100182CD8
:102A9000ECD3BDE8F0810000CC9700202DE9F04197
:102AA000164688465C2816D20C4F002400EB4005E1
:102AB0001A4631464046FFF7A8FFA040000201D564
:102AC0001E2000E00F2004EBC501641CE4B227F8CF
:102AD0001100182CECD3BDE8F08100007C4F0020E1
:102AE0002DE9F04116468846582816D20C4F00248E
:102AF00000EB40051A4631464046FFF786FFA040EE
:102B0000000201D51E2000E00F2004EBC501641C6B
:102B1000E4B227F81100182CECD3BDE8F0810000D6
:102B20003C3D002000210B4A0F2341F6C81000BF96
:102B300022F81130491C89B28142F9D3002341F6B1
:102B4000A82100BF22F81030401C80B28842F9D37F
:102B500000F002B87C62002041F6A823024A00215E
:102B60000248FFF7D3B900007C620020CC000020AF
:102B700040F61803024A04210248FFF7C7B90000D3
:102B8000CC970020840000204FF41863024A0421EF
:102B90000248FFF7BBB900007C4F0020CC000020AA
:102BA0004FF41263024A00210248FFF7AFB9000058
:102BB0003C3D0020140100204FF4E853024A00215C
:102BC0000248FFF7A3B900003C0300208400002066
:102BD0002DE9F04115460E46074600242B463246A5
:102BE00039462046FFF738FF641CA4B24D2CF5D3BC
:102BF000BDE8F041FFF7BCBF2DE9F04115460E4698
:102C0000074600242B46324639462046FFF746FF4A
:102C1000641CA4B25C2CF5D3BDE8F041FFF7B4BF4F
:102C20002DE9F04115460E46074600242B46324654
:102C300039462046FFF754FF641CA4B2582CF5D344
:102C4000BDE8F041FFF7ACBFF0B587B000246B469C
:102C50000D0601D51E2500E00F251D554906641CF3
:102C6000090EA4B2082CF3D30021040601D51E24BA
:102C700000E00F245D184006491C000E89B22C723A
:102C80000829F2D30020110601D51E2100E00F21F2
:102C90001C18401C217451060A0E80B20828F2D379
:102CA000114A00214FF49675002001EB41041E5C8F
:102CB00000EBC407401C80B222F817601828F6D336
:102CC000491C89B2A942EFD34FF4E15000214FF4DF
:102CD000E85300BF22F81010401C80B29842F9D38C
:102CE000FFF76AFF07B0F0BD3C03002070B5064651
:102CF000144613460D460A4600203146FFF78AFE69
:102D00000C2023462A463146FFF784FE192023462D
:102D10002A463146FFF77EFE262023462A463146C4
:102D2000FFF778FE322023462A463146FFF772FE2F
:102D30003D2023462A463146FFF76CFE48202346B5
:102D40002A463146FFF766FE542023462A4631467E
:102D5000FFF760FE5F2023462A463146FFF75AFE02
:102D6000692023462A463146FFF754FE7320234646
:102D70002A463146FFF74EFE7D2023462A4631463D
:102D8000FFF748FE872023462A463146FFF742FEDA
:102D9000902023462A463146FFF73CFE98202346E2
:102DA0002A463146FFF736FEA12023462A46314601
:102DB000FFF730FEAA2023462A463146FFF72AFEB7
:102DC000B22023462A463146FFF724FEB920234687
:102DD0002A463146FFF71EFEE62023462A463146A4
:102DE000FFF718FEE12023462A463146FFF712FE80
:102DF000F02023462A463146FFF70CFEC02023462A
:102E00002A463146FFF706FEEB2023462A46314686
:102E1000FFF700FEBDE87040FFF79EBE2DE9F04FC2
:102E200087B0054600206C46160601D51E2600E038
:102E30000F2626545206401C120E80B20828F3D3E7
:102E400000200A0601D51E2200E00F22261849069E
:102E5000401C090E80B232720828F2D300201906F5
:102E600001D51E2200E00F222118401C0A745906C9
:102E70000B0E80B2A0460828F1D3681E51494FF4CA
:102E8000E7694FF0000A40F6180B052861D20023CD
:102E900068420B2202EB400618E0002403EB4307D4
:102EA000002211461046FFF7B0FD9840000201D500
:102EB0001E2100E00F2104EBC7024248641CA4B2AB
:102EC00020F81210182CEBD35B1C9BB29E42E4DC62
:102ED000102000EB4503B1B245463A4C0DE000200E
:102EE00001EB41022E5C00EBC207401C80B224F8CB
:102EF00017601828F6D3491C89B28B42EFD817E027
:102F0000002503EB4306002211461046FFF77DFD26
:102F10009840000201D51E2000E00F2005EBC601FD
:102F20006D1CADB224F81100182DECD35B1C9BB2C4
:102F30004D2BE5D3484651464FEA0B0224F81010BA
:102F4000401C80B29042F9D3FFF712FE07B0BDE8F3
:102F5000F08F062D19D000205346002200EB4004CC
:102F600002EBC405521C92B221F81530182AF7D38F
:102F7000401C80B24D28F0D348465A4621F8103004
:102F8000401C80B29042F9D3DEE700224346002085
:102F900002EB42041D5C00EBC406401C80B221F829
:102FA00016501828F6D3521C92B24D2AEFD3484639
:102FB00052465B4621F81020401C80B29842F9D35B
:102FC000C2E70000CC9700202DE9F04F87B0002524
:102FD0006C46160601D51E2600E00F2666555206E1
:102FE0006D1C120EADB2082DF3D300220D0601D5D3
:102FF0001E2500E00F25A6184906521C090E92B2A4
:103000003572082AF2D300211A0601D51E2200E0EB
:103010000F226518491C2A745A06130E89B2082912
:10302000F2D34FF4967934494FF4E15A4FF0000B44
:10303000484542DAC0F5967006B20023884617E08C
:10304000002503EB4307002211461046FFF7DDFC85
:103050009840000201D51E2100E00F2105EBC702B8
:103060006D1CADB228F81210182DECD35B1C9BB26E
:10307000B342E5DBB2B24D4641460DE0002002EB23
:103080004203265C00EBC307401C80B221F81760A6
:103090001828F6D3521C92B2AA42EFD350465A4691
:1030A0004FF4E85321F81020401C80B29842F9D325
:1030B000FFF782FD07B0BDE8F08F00224D460020EB
:1030C00002EB4203265C00EBC307401C80B221F8F0
:1030D00017601828F6D3521C92B2AA42EFD350467A
:1030E0005A464FF4E85300BF21F81020401C80B22C
:1030F0009842F9D3DCE700003C0300202DE9F041C1
:1031000016460F468046F5244FF4827533463A46FC
:1031100041462046FFF77EFC641CA4B2AC42F5D3C6
:10312000BDE8F041FFF718BD2DE9F04115460E4608
:103130000746AA242B46324639462046FFF76AFC4A
:10314000641CA4B2C82CF5D3BDE8F041FFF704BD60
:103150002DE9F04115460E46074687242B46324698
:1031600039462046FFF756FC641CA4B2AA2CF5D3BE
:10317000BDE8F041FFF7F0BC2DE9F04116460F46DF
:1031800080464FF482744FF4867533463A46414682
:103190002046FFF73FFC641CA4B2AC42F5D3BDE867
:1031A000F041FFF7D9BC2DE9F04115460E46074620
:1031B00000242B46324639462046FFF72BFC641C80
:1031C000A4B2322CF5D3BDE8F041FFF7C5BC2DE920
:1031D000F04115460E460746E1242B463246394655
:1031E0002046FFF717FC641CA4B2F52CF5D3BDE80C
:1031F000F041FFF7B1BC2DE9F04115460E460746F8
:10320000C8242B46324639462046FFF703FC641C8F
:10321000A4B2E12CF5D3BDE8F041FFF79DBC2DE948
:10322000F0414FF4867416460F468046251D3346FE
:103230003A4641462046FFF7EDFB641CA4B2AC427F
:10324000F5D3BDE8F041FFF787BC2DE9F041154605
:103250000E4607465F242B46324639462046FFF786
:10326000D9FB641CA4B2872CF5D3BDE8F041FFF76D
:1032700073BC2DE9F04115460E46074632242B4615
:10328000324639462046FFF7C5FB641CA4B25F2CCA
:10329000F5D3BDE8F041FFF75FBC0907090E002830
:1032A00004DB00F1E02080F80014704700F00F000C
:1032B00000F1E02080F8141D70470000F0B54218BE
:1032C00002EB4203DC00544B0F26D51C9C80534C70
:1032D00005EB450705E0002D01DB24F815606D1CAA
:1032E0009D80B3F90450B5EBC70FF4DB551D05EB1A
:1032F0004505ED00471808379D8007EB470C05E0B2
:10330000002D01DB24F815606D1C9D80B3F904507D
:10331000B5EBCC0FF4DB07EB4705ED009D8002F128
:103320000A0505EB450505E0002F01DB24F81760D1
:103330007F1C9F80B3F90470B7EBC50FF4DB02F17B
:103340000E0505EB4505ED00084410309D8000EBAF
:10335000400105E0002D01DB24F815606D1C9D8007
:10336000B3F90450B5EBC10FF4DB00EB4000C00033
:10337000988002F1110000EB400105E0002801DB1C
:1033800024F81060401C9880B3F90400B0EBC10F22
:10339000F4DB02F1170000EB4000C000988002F15E
:1033A000180000EB400105E0002801DB24F8106064
:1033B000401C9880B3F90400B0EBC10FF4DB02F1BC
:1033C0001B0000EB4000C000988002F11D0000EBE4
:1033D000400105E0002801DB24F81060401C9880C3
:1033E000B3F90400B0EBC10FF4DB02F1220000EBF3
:1033F0004000C0002632988002EB420105E0002820
:1034000001DB24F81060401C9880B3F90400B0EB95
:10341000C10FF4DBF0BD00001C0000203C030020C5
:1034200002490A7802704978C17070472C00002068
:1034300088B0FDF765FFFFF7F1F8FEF76FFFFEF7C5
:103440002FFFFEF70BFFFFF71FF8FFF771F8FEF7EE
:10345000ADFFFFF7A5F8FDF715F8FE48FCF73AFFBA
:10346000002211461046FFF7C7FB00221146104606
:10347000FFF7AEFB002211461046FFF7E5FB0022E6
:1034800011461046FFF7CCFBFFF74CFBF34CDFF87F
:10349000C893F34FDFF8CC8304F10A0A00254FF0FC
:1034A000010B00BFFCF748FFEF4E4FF400513046D0
:1034B000FDF712FF20704FF480413046FDF70CFFFE
:1034C000607008213046FDF707FFA07004213046E8
:1034D000FDF702FFE07002213046FDF7FDFE20718E
:1034E00001213046FDF7F8FE607110214E46484636
:1034F000FDF7F2FEA07180213046FDF7EDFEE07190
:1035000020213046FDF7E8FE207240213046FDF7CD
:10351000E3FE607221788DF80C1061788DF80D1043
:10352000A1788DF80E10E1788DF80F1021798DF8C3
:10353000101061798DF81110A1798DF81210E179D0
:103540008DF81310217A8DF814108DF81500C349E9
:10355000002003AB0A396E461A5C002A0A5C07D0C9
:1035600022B1521E0A54D2B2072A05D2012204E027
:10357000072A01D2521CF5E700223254401C0A28C7
:10358000EADB9DF8000020709DF8010060709DF856
:103590000200A0709DF80300E0709DF80400207107
:1035A0009DF8050060719DF80600A0719DF8070068
:1035B000E0719DF8080020729DF80900607297F88C
:1035C0002A00002875D1A34E97F8280086F820001D
:1035D00096F82110884239D0A8F806500022A8F8A1
:1035E0000850A8F80A5011461046FFF705FB0022C4
:1035F00011461046FFF7ECFA002211461046FFF77D
:1036000023FB002211461046FFF70AFB86F82350E1
:1036100086F8225086F8275086F82650FFF782FA5F
:103620008AF800508AF801508AF802508AF803504C
:103630008AF804508AF805508AF806508AF807502C
:103640008AF808508AF80950A8F8025096F8200025
:1036500086F82100032812D0022810D0012811D0AA
:1036600080B10222A8F8002097F8251001290CD07B
:1036700006282FD004282DD002292BD034E0A8F81A
:1036800000B0F1E7A8F80050EEE7012812D00328B7
:1036900010D0B0B1022814D0002211461046FFF716
:1036A000BFFA002200210846FFF7A6FA87F8255046
:1036B0001AE043E1002132220846FFF7B1FA322234
:1036C000F0E7002211463220FFF7AAFA0022114645
:1036D0003220E9E7002211461046FFF7A1FA002246
:1036E00011461046FFF788FA97F82700B8F900103E
:1036F00050EA010201D050B36FE097F82B00012887
:1037000003D186F8265087F82B5000221146104628
:10371000FFF79AFA002211461046FFF759FAFFF711
:1037200001FA86F8245033E06078E0B3A078D0B393
:10373000E078C0B32079B0B36079A0B3A07990B33A
:10374000E07980B3207A70B3607A60B345E00129F4
:1037500043D197F82B00012803D186F8265087F82B
:103760002B50FFF7DFF986F8245096F82000022846
:1037700038D0032848D000231A4619461846FFF7C8
:1037800023FC00231A4619465FF00600FFF746FBAC
:1037900086F8235086F8225086F827508AF8005081
:1037A0008AF8015000E016E08AF802508AF80350C7
:1037B0008AF804508AF805508AF806508AF80750AB
:1037C0008AF808508AF80950A8F80250A8F80A5058
:1037D00020780028A8D186F826B097F8260001287E
:1037E00024D027E097F82C00002300EB40012C2088
:1037F00000EB01101A467821FFF7E6FB002397F84B
:103800002C001A469621C1E797F82C00002200EB05
:1038100040012C2000EB011078231146FFF7D4FB68
:103820007823002297F82C001146AFE7A8F8025041
:1038300087F8265096F8200001287DD196F82200BE
:1038400000285DD196F82300002876D197F827004C
:1038500001280BE053A8002000080140460000208A
:1038600026A80020000000200010014066D10021A1
:1038700032220846FFF73AFA002132220846FFF7C3
:10388000F8FC002132220846FFF7B5FC0021322265
:103890000846FFF771FCB8F802104046462901D8E7
:1038A000491C418088B2282805D8002232231146BD
:1038B0001046FEF75BFCB8F8020046280AD3042144
:1038C000F648FEF7F1FB0021F548FEF7EDFB472136
:1038D000A8F802102078A0B1607890B1A07880B1EB
:1038E000E07870B1207960B1607950B1A07940B1D1
:1038F000E07930B1207A20B1607A10B1A8F80A508E
:1039000084E086F822B0B8F80A10491CA8F80A101A
:10391000FFF708F9B8F80A0080B32078B0B16078F2
:10392000B8B1A078C0B1E078C8B12079D0B16079E1
:10393000D8B1A079E0B102E0C0E072E094E1E079B2
:10394000C8B1207AD8B1607AE0B11DE08AF800B041
:103950001EE08AF801B017E08AF802B014E08AF895
:1039600003B011E08AF804B00EE08AF805B00BE06D
:103970008AF806B008E08AF807B005E046E08AF861
:1039800008B001E08AF809B09AF80010504631B149
:103990009AF80110504649B18AF8015036E0417852
:1039A00021B1817849B18AF802502FE0817821B1A4
:1039B000C17849B18AF8035028E0C17821B1017972
:1039C00049B18AF8045021E0017921B1417949B126
:1039D0008AF805501AE0417921B1817949B18AF814
:1039E000065013E0817921B1C17949B18AF80750B5
:1039F0000CE0C17921B1017A41B18AF8085005E0A3
:103A0000017A19B1417A09B18AF8095096F8220071
:103A1000012806D197F8240018B997F82700012843
:103A200004D096F82300012807D0A0E086F823B040
:103A3000A8F80250A8F8045002E097F82400E8BB68
:103A4000002132220846FFF7FFF800213222084603
:103A5000FFF7BEF89AF80000012806D100213222B3
:103A60000846FFF7A0FB86F824B09AF80100012869
:103A700007D1002132220846FFF7FBFB022086F81F
:103A800024009AF80200012807D1002132220846BA
:103A9000FFF7DBFB032086F824009AF803000128D7
:103AA00007D1002132220846FFF752FB042086F896
:103AB00024009AF80400012809D100E057E0002111
:103AC00032220846FFF730FB052086F824009AF8DA
:103AD0000500012807D1002132220846FFF78BFBA1
:103AE000062086F824009AF80600012807D1002154
:103AF00032220846FFF76BFB072086F824009AF86D
:103B00000700012807D1002132220846FFF7F6FA04
:103B1000082086F824009AF80800012807D100211F
:103B200032220846FFF728FB092086F824009AF87D
:103B3000090001281BD1002132220846FFF76FFB44
:103B4000002132220846FFF7D9FA00213222084626
:103B5000FFF751FB002132220846FFF7F9FA002156
:103B600032220846FFF785FB0A2086F8240096F8E3
:103B70002000002877D196F82200E8BB96F82300B1
:103B8000D8BB97F8270001286ED1002211463220B9
:103B9000FFF7ACF8002211463220FFF76AFB002243
:103BA00011463220FFF727FB002211463220FFF793
:103BB000E3FAB8F80210404646290ED8491C89B2EB
:103BC0004180282905D800231A4632211846FEF7DD
:103BD000CDFAB8F8020046280AD304212F48FEF790
:103BE00063FA00212E48FEF75FFA4720A8F802008A
:103BF0002078B8B1607801E04FE0A5E090B1A078FE
:103C000080B1E07870B1207960B1607950B1A0796D
:103C100040B1E07930B1207A20B1607A10B1A8F8D3
:103C20000A5086E086F822B0B8F80A10491CA8F8B5
:103C30000A10FEF777FFB8F80A0070B32078A0B139
:103C40006078A8B1A078B0B1E078B8B12079C0B1FF
:103C50006079C8B1A079D0B1E079D8B1207A08B341
:103C6000607A10B323E0BDE096E18AF800B022E06C
:103C70008AF801B01BE08AF802B018E08AF803B0B5
:103C800015E08AF804B012E08AF805B00FE08AF86F
:103C900006B00CE08AF807B009E04AE0CC0000204A
:103CA000140100208AF808B001E08AF809B09AF8F7
:103CB0000010504631B19AF80110504649B18AF8C7
:103CC000015036E0417821B1817849B18AF802503B
:103CD0002FE0817821B1C17849B18AF8035028E0FA
:103CE000C17821B1017949B18AF8045021E0017904
:103CF00021B1417949B18AF805501AE0417921B1E1
:103D0000817949B18AF8065013E0817921B1C179EE
:103D100049B18AF807500CE0C17921B1017A41B16B
:103D20008AF8085005E0017A19B1417A09B18AF898
:103D3000095096F82200012806D197F8240018B9F6
:103D400097F82700012804D096F82300012807D00F
:103D5000A0E086F823B0A8F80250A8F8045002E0CA
:103D600097F82400F0BB002211463220FEF76CFFCA
:103D7000002211463220FEF72BFF9AF8000001289E
:103D800006D1002211463220FFF70DFA86F824B042
:103D90009AF80100012807D1002211463220FFF7CE
:103DA00068FA022086F824009AF80200012807D158
:103DB000002211463220FFF748FA032086F824003B
:103DC0009AF80300012807D1002211463220FFF79C
:103DD000BFF9042086F824009AF80400012809D1CC
:103DE000002200E056E011463220FFF79DF9052041
:103DF00086F824009AF80500012807D10022114610
:103E00003220FFF7F8F9062086F824009AF8060019
:103E1000012807D1002211463220FFF7D8F90720E8
:103E200086F824009AF80700012807D100221146DD
:103E30003220FFF763F9082086F824009AF808007A
:103E4000012807D1002211463220FFF795F90920F9
:103E500086F824009AF8090001281BD10022114697
:103E60003220FFF7DCF9002211463220FFF746F935
:103E7000002211463220FFF7BEF9002211463220FF
:103E8000FFF766F9002211463220FFF7F2F90A2007
:103E900086F8240096F8200003287CD196F82200AA
:103EA000F0BB96F82300002876D197F82700012868
:103EB000FAD1002211461046FEF78AFE0021322276
:103EC0000846FEF713FF002132220846FFF7D1F91A
:103ED000002132220846FFF78EF9002132220846DF
:103EE000FFF74AF9B8F8021040465A2901D8491C90
:103EF000418088B2322805D800223223114610466C
:103F0000FEF734F9B8F802005A280CD30421FE4811
:103F1000FEF7CAF80021FD48FEF7C6F85B2000E076
:103F200054E0A8F802002078A0B1607890B1A078A1
:103F300080B1E07870B1207960B1607950B1A0793A
:103F400040B1E07930B1207A20B1607A10B1A8F8A0
:103F50000A5081E086F822B0B8F80A10491CA8F887
:103F60000A10FEF7DFFDB8F80A0078B32078A0B198
:103F70006078B0B1A078B8B1E078C0B12079C8B1AC
:103F80006079D0B1A079D8B1E079E0B1207AF0B110
:103F9000607AF8B120E0A5E0F7E050468AF800B07A
:103FA0001EE08AF801B017E08AF802B014E08AF83F
:103FB00003B011E08AF804B00EE08AF805B00BE017
:103FC0008AF806B008E08AF807B005E044E08AF80D
:103FD00008B001E08AF809B09AF80010504621B103
:103FE000417849B18AF8015036E0417821B18178B1
:103FF00049B18AF802502FE0817821B1C17849B1E6
:104000008AF8035028E0C17821B1017949B18AF8D2
:10401000045021E0017921B1417949B18AF8055074
:104020001AE0417921B1817949B18AF8065013E04B
:10403000817921B1C17949B18AF807500CE0C17981
:1040400021B1017A41B18AF8085005E0017A19B12D
:10405000417A09B18AF8095096F8220001284ED118
:1040600097F82400F0BB97F82700012847D19AF869
:1040700000105046012901D186F824B04178012969
:1040800002D1022186F824108178012902D103216E
:1040900086F82410C178012902D1042186F8241061
:1040A0000179012902D1052186F8241041790129DD
:1040B00002D1062186F824108179012902D1072135
:1040C00086F82410C179012902D1082186F824102C
:1040D000017A012902D1092186F824109AF80900F1
:1040E000012800E00BE002D10A2086F8240086F8BF
:1040F00023B0A8F80250A8F80450FEF713FD96F874
:104100002000022841D196F82200E8BB96F823004F
:10411000D8BB97F82700012837D100221146104656
:10412000FEF756FD002211463220FEF7DFFD002289
:1041300011463220FFF79DF8002211463220FFF78A
:104140005AF8002211463220FFF716F8B8F802009C
:104150005A280FD8401C80B2A8F80200322805D88F
:1041600000231A4632211846FEF700F8B8F802007C
:104170005A280DD304216448FDF796FF00216348B7
:10418000FDF792FF5B2101E055E0BCE0A8F80210CA
:104190002078A0B1607890B1A07880B1E07870B15B
:1041A000207960B1607950B1A07940B1E07930B147
:1041B000207A20B1607A10B1A8F80A5080E086F821
:1041C00022B0B8F80A10491CA8F80A10FEF7AAFC99
:1041D000B8F80A0078B3207890B1607898B1A078E8
:1041E000A0B1E078A8B12079B0B16079B8B1A07978
:1041F000C0B1E079C8B1207AD0B1607AE0B11DE0F9
:104200008AF800B01EE08AF801B017E08AF802B020
:1042100014E08AF803B011E08AF804B00EE08AF8DE
:1042200005B00BE08AF806B008E08AF807B005E0B0
:104230008AF808B002E043E08AF809B09AF8001062
:10424000504631B19AF80110504649B18AF80150F0
:1042500036E0417821B1817849B18AF802502FE0E7
:10426000817821B1C17849B18AF8035028E0C1783A
:1042700021B1017949B18AF8045021E0017921B1D5
:10428000417949B18AF805501AE0417921B1817923
:1042900049B18AF8065013E0817921B1C17949B159
:1042A0008AF807500CE0C17921B1017A41B18AF84E
:1042B000085005E0017A19B1417A09B18AF809502C
:1042C00096F82200012852D197F82400D8B997F81F
:1042D000270001284BD19AF800105046012901D13E
:1042E00086F824B04178012902D1022186F82410F1
:1042F0008178012902D1032186F82410C17801298F
:1043000008D1042104E032E0CC0000201401002098
:1043100086F824100179012902D1052186F824109C
:104320004179012902D1062186F8241081790129D9
:1043300002D1072186F82410C179012902D1082170
:1043400086F82410017A012902D1092186F8241067
:104350009AF80900012802D10A2086F8240086F87C
:1043600023B0A8F80250A8F80450FEF7DBFB0120A8
:10437000FCF7A4FEFFF796B8000000000000000064
:104380000102030406070809A843000800000020F2
:104390003C0000006C010008E44300083C000020E1
:1043A000A4AE000088010008020000000000000028
:1043B00000000000010000001000000000000000EC
:1043C0000024F400000000000000000000000000D5
:1043D00000000000000000000000000000000000DD
:0443E00000000000D9
:0400000508000131BD
:00000001FF
