:020000040800F2
:10000000986900205D020008ED3E00089339000861
:10001000AD3E00085D0900085D4B000800000000CF
:100020000000000000000000000000009D0100082A
:10003000B70D000800000000F9010008A140000809
:1000400077020008770200087702000877020008AC
:10005000770200087702000877020008770200089C
:10006000770200087702000877020008770200088C
:10007000770200087702000877020008770200087C
:100080004D0C00085D0C000877020008810900088B
:10009000610900087109000877020008770200086A
:1000A000770200087702000877020008770200084C
:1000B000770200087702000877020008770200083C
:1000C000770200087702000877020008770200082C
:1000D0007702000877020008194A0008294A000838
:1000E000770200087702000877020008770200080C
:1000F00077020008770200087702000877020008FC
:1001000077020008770200087702000877020008EB
:1001100077020008770200087702000877020008DB
:10012000770200086D0C0008770200087D0C0008BB
:100130008D0C00087702000877020008B10900085A
:1001400091090008A1090008770200087702000859
:10015000770200089D0C0008770200084D4B00084C
:10016000770200087702000877020008770200088B
:1001700077020008770200087702000800000000FC
:100180007702000877020008DFF80CD000F068FB67
:100190000048004755570008986900202C4B196803
:1001A0000868B0E8F04F80F30988BFF36F8F4FF015
:1001B000000080F3118870470000000008480068C4
:1001C000006880F308884FF0000080F3148862B65E
:1001D00061B6BFF34F8FBFF36F8F00DF00BF00BF6B
:1001E00008ED00E0DFF80C00016841F470010160E7
:1001F000704700BF88ED00E0EFF30980BFF36F8F19
:10020000134B1A681EF0100F08BF20ED108A20E96A
:10021000F04F106009B44FF0500080F31188BFF325
:100220004F8FBFF36F8F06F09BFD4FF0000080F300
:10023000118809BC19680868B0E8F04F1EF0100F6B
:1002400008BFB0EC108A80F30988BFF36F8F704746
:1002500024000020EFF30580704700000648804727
:1002600006480047FEE7FEE7FEE7FEE7FEE7FEE79B
:10027000FEE7FEE7FEE7FEE76941000889010008A6
:100280002DE9F05F0546002092469B4688460646CB
:10029000814640241BE0284641464746224600F05E
:1002A00028FA53465A46C01A914110D311461846AF
:1002B000224600F00FFA2D1A67EB01084F4622463E
:1002C0000120002100F006FA17EB00094E41201E24
:1002D000A4F10104DFDC484631462A464346BDE826
:1002E000F09F00000649074A0868504343F239026C
:1002F00010440860400870470149086070470000DA
:10030000700100206D4EC64140EA01039B0703D0F7
:1003100009E008C9121F08C0042AFAD203E011F844
:10032000013B00F8013B521EF9D27047D2B201E006
:1003300000F8012B491EFBD270470022F6E710B5EA
:1003400013460A4604461946FFF7F0FF204610BD43
:100350002DE9FE4F804681EA0300C00F0C46009055
:1003600021F0004123F00045B8EB0200A94105D27D
:100370004046214690461C460B46024623F000406C
:10038000104347D0270DC7F30A00C3F30A51029068
:10039000401A019040286BDAC3F3130040F4801B2D
:1003A0000098924620B10023D2EB030A63EB0B0BBB
:1003B00001985946C0F14002504600F08BF90646BC
:1003C0000D4650465946019A00F0A3F910EB08007B
:1003D0006141002487EA115284EAE7731A4340D04E
:1003E000009A62B3019A012A4FEA075215DC001BFA
:1003F00061EB02014FF0004202EA0752CDE90042F0
:10040000001C41F5801132462B4600F0DAF903B0AA
:10041000BDE8F08F40462146F9E7001B61EB020181
:10042000001C41F5801300185B412018A2F500174D
:1004300047EB030140EAD570B6196D4111E06D0834
:100440004FEA360645EAC0754FEA0752001B61EBDA
:100450000201001C41F5801149084FEA30000019E3
:10046000514132462B4603B0BDE8F04F00F09AB937
:100470000098012240000023D0EB020263EBE073FE
:10048000009821464FEAE074B8EB000061EB0401EC
:10049000E9E783F000435BE781F0004158E72DE98D
:1004A000FE4F81EA030404F0004421F0004100946F
:1004B0004FF0000B23F0004350EA01045ED052EAF3
:1004C00003045BD0C3F30A54C1F30A552C44A4F2CD
:1004D000F3340194A0FB0254C1F3130141F48011E1
:1004E000C3F3130343F4801301FB024400FB034EE8
:1004F000840A970A44EA815447EA8357A4FB0768B1
:1005000002958D0A05FB07854FEA932C04FB0C54DA
:100510002705029D4FEA065847EA1637B5EB08054E
:100520006EEB070C870E920E47EA811742EA8312A0
:10053000A7FB0201B6EB0B0164EB00042B0D43EAB1
:100540000C335E1844EB1C50DA465146E7FB0201BF
:10055000C5F313044FEA0B3343EA14534FEA043252
:10056000019C43EA0603A4F10C040294009CCDE92B
:1005700000B400F026F903B0BDE8F08F002001467A
:10058000F9E72DE9F04D81EA030404F0004B21F076
:10059000004514464FF0000A23F0004150EA0502DE
:1005A00020D054EA01021DD0C5F30A570246C5F314
:1005B0001303C1F31300C1F30A5640F4801543F44A
:1005C0008013A7EB0608101BD64608F2FD3873EB24
:1005D000050002D308F1010801E092185B41B8F16F
:1005E000000F03DA00200146BDE8F08D00204FF433
:1005F0008011064684460EE0171B73EB050705D3F2
:10060000121B63EB050306434CEA010C49084FEA51
:10061000300092185B4150EA0107EDD152EA030025
:1006200012D082EA040083EA0501084305D0101BBA
:10063000AB4106D20122002306E000224FF0004326
:1006400002E06FF0010253101AEB06004CEB085168
:1006500010EB0A0041EB0B01BDE8F04D00F0A2B831
:100660000EB5C10F80EAE0700844CA07002140F2CD
:1006700033438DE80E000A460B4600F0A2F803B0A3
:1006800000BD0EB540F2334102910021CDE90011C9
:100690000A460B4600F095F803B000BD01F0004398
:1006A00030B421F0004150EA010206D00A0DA2F553
:1006B0006072C1F31301002A02DC30BC00207047D5
:1006C000440F44EAC104C100E01830BC00EBC25042
:1006D00000F031B8202A04DB203A00FA02F10020B1
:1006E00070479140C2F1200320FA03F31943904070
:1006F0007047202A04DB203A21FA02F000217047DB
:1007000021FA02F3D040C2F1200291400843194679
:100710007047202A06DBCB17203A41FA02F043EA61
:10072000E07306E041FA02F3D040C2F120029140AA
:100730000843194670470029A8BF7047401C49006C
:1007400008BF20F00100704710B4B0FA80FC00FA36
:100750000CF050EA010404BF10BC704749B1CCF161
:10076000200421FA04F411FA0CF118BF01212143ED
:100770000843A3EB0C01CB1D4FEA00614FEA1020A8
:1007800042BF002010BC704700EBC350104400294A
:10079000A4BF10BC7047401C490008BF20F00100F6
:1007A00010BC704710B5141E73F1000408DA401C29
:1007B00041F1000192185B411A4301D120F0010080
:1007C00010BD2DE9F04D92469B4611B1B1FA81F270
:1007D00002E0B0FA80F220329046FFF77BFF044639
:1007E0000F4640EA0A0041EA0B0153465A460843C5
:1007F00013D0114653EA010019D0C8F14002504607
:10080000FFF777FF05460E46504659464246FFF72A
:1008100061FF084305D0012004E020463946BDE8C9
:10082000F08D0020054346EAE0762C4337430A98D2
:100830006305E40AA0EB08000022FD0A44EA4754DD
:100840000A3002D500200146E9E701051019694187
:10085000DDE9084500196941BDE8F04DA2E7000057
:10086000064C074D06E0E06840F0010394E80700FD
:1008700098471034AC42F6D3FFF78AFCEC740008BA
:100880000C75000870B5C1F30A5201F00045002450
:10089000C1F3130140F2FF3341F480119A4201DAAF
:1008A000002070BD40F233439A42A2F2334203DC8F
:1008B0005242FFF71EFF00E090402C43F1D040422F
:1008C00070BD30B58C1810F8012B12F00F0301D158
:1008D00010F8013B120906D110F8012B03E010F8C3
:1008E000015B01F8015B5B1EF9D101E001F8013BFE
:1008F000521EFBD1A142E6D3002030BD10B5044604
:10090000002C13DD062C11DA0A490B4800F057FAC7
:1009100001200A49084A127801EBC201C870074950
:10092000044A127801EBC201C87002E006200449B3
:10093000087010BD1F0100201E0100205063002020
:10094000EC00002010B501220249034802F0CCFF60
:1009500010BD00006E0100206814002000BFFEE7FB
:1009600010B5024800F05DFC10BD0000C812002068
:1009700010B5024800F055FC10BD0000C812002060
:1009800010B5024800F04DFC10BD0000C812002058
:1009900010B5024800F045FC10BD0000F012002028
:1009A00010B5024800F03DFC10BD0000F012002020
:1009B00010B5024800F035FC10BD0000F012002018
:1009C00038B504464FF4407008490860002088603C
:1009D000C8600820086106490C706B460A46034946
:1009E000044800F01EFA0449087038BD0465002070
:1009F00052010020F012002050010020F8B50446FA
:100A00000D461646002019498860C8600820086114
:100A100017490D704E70012C04D140F2013013497A
:100A200008601AE0022C04D140F202300F4908603D
:100A300013E0032C04D140F203300C4908600CE0B1
:100A4000042C04D14FF441700849086005E0052CDE
:100A500003D140F20530054908606B46044A03495A
:100A6000044800F0DEF904490870F8BD0465002070
:100A700052010020F01200204F01002038B504463A
:100A800032200949086000208860C8600820086199
:100A9000200A064908704C706B460A460249044811
:100AA00000F0BFF938BD00001C6500205A0100208D
:100AB000C812002038B504464FF483700749086017
:100AC00000208860C8600820086105490C706B46EA
:100AD0000A460249034800F0A4F938BD1C6500200D
:100AE0005A010020C812002038B504460D4640F2D5
:100AF00005100849086000208860C8600820086167
:100B000005490C706B460A460249044800F089F911
:100B100038BD00001C6500205A010020C8120020CA
:100B200038B5044640F296200849086000208860E5
:100B3000C8600820086106490C706B460A460349E4
:100B4000044800F06EF90449087038BD04650020BF
:100B500052010020F01200204E01002038B504465A
:100B600040F295200849086000208860C86008208D
:100B7000086106490C706B460A460349044800F0B8
:100B800050F90449087038BD046500205201002066
:100B9000F01200204E01002038B5044640F29920A2
:100BA0000849086000208860C8600820086106497C
:100BB0000C706B460A460349044800F032F90449B8
:100BC000087038BD0465002052010020F01200209A
:100BD0005101002038B5044640F2972008490860CA
:100BE00000208860C8600820086106490C706B46C8
:100BF0000A460349044800F014F90449087038BD56
:100C00000465002052010020F01200204E01002057
:100C100038B504464FF42670084908600020886003
:100C2000C8600820086106490C706B460A460349F3
:100C3000044800F0F6F80449087038BD0465002047
:100C400052010020F01200204E01002010B5024891
:100C500000F05EFF10BD0000F814002010B502483F
:100C600000F056FF10BD00005815002010B50248D6
:100C700000F04EFF10BD0000B815002010B502486E
:100C800000F046FF10BD0000A813002010B5024878
:100C900000F03EFF10BD00000814002010B502480F
:100CA00000F036FF10BD000018160020014608783D
:100CB00010381823B0FBF3F20848805CC865032A9B
:100CC00005D908686FF30900001D886503E008680E
:100CD0006FF309008865886D704700008473000811
:100CE000014600208A6A8B69CBB932B1012A0DD046
:100CF000022A03D0032A10D10EE000BFCB6A03F012
:100D00008073B3F1807F00D1012007E0CB6AB3F19B
:100D1000C07F00D1012001E000E000BF34E08B691A
:100D2000B3F5005F1AD132B1012A07D0022A03D0ED
:100D3000032A11D10AE000BF01200EE0CB6A03F0C4
:100D40008073B3F1807F00D1012006E0CB6AB3F15C
:100D5000C07F00D1012000E000BF15E032B1012AC0
:100D600005D0022A04D0032A0CD103E000BF00BF43
:100D7000012008E0CB6A03F08073B3F1807F00D1DB
:100D8000012000E000BF00BF704730B50468246850
:100D900024F4802405682C60046863608468402C17
:100DA00004D10468A2600468E16003E00468A16003
:100DB0000468E26030BD704772B600BFFEE72DE9FF
:100DC000F04106460F4600BFFFF78CFA052190FB65
:100DD000F1F201FB1200401CC4B2FFF783FA0521B7
:100DE00090FBF1F201FB1200401CC5B2AC42EBD00B
:100DF00034703D70BDE8F08110B5024692F82030A5
:100E0000012B01D0022B06D11068406908431468F9
:100E10006061002010BD506A40F4802050620120C3
:100E2000F8E7F0B504460D461E4694F82070206899
:100E30008368A86800B900E000BF012F01D0022F2D
:100E40007DD103F0806030B903F0006018B903F081
:100E5000805000287ED0C3F30161012088403060BB
:100E6000A86860B9B5F800C0E86840EA4C5C206842
:100E700000F5C07000EB0110C0F800C00FE0D5E92C
:100E800001C040EACC00D5F80CC040EA0C00D4F810
:100E900000C00CF5C07C0CEB011CCCF80000D5F8B0
:100EA00010C0206800F5C07000EB0110C0F804C04D
:100EB000287D01280ED1206800F5C07000EB0110DC
:100EC000406840F4807C206800F5C07000EB0110A1
:100ED000C0F804C0D079000692F806C040EA0C4081
:100EE00092F805C040EA0C2092F804C040EA0C00D9
:100EF000D4F800C00CF5C07C0CEB011CCCF80C0045
:100F0000D078000692F802C040EA0C4092F801C086
:100F100040EA0C2092F800C040EA0C00D4F800C06F
:100F20000CF5C07C0CEB011CCCF80800206800F527
:100F3000C07000EB0110006840F0010C01E00FE010
:100F400008E0206800F5C07000EB0110C0F800C098
:100F50000020F0BD606A40F4001060620120F8E7F4
:100F6000606A40F4802060620120F2E7F0B5044638
:100F70000A4694F82050012D01D0022D7ED142491D
:100F800001F50071086840F001000860086820F46D
:100F90007C5008600868566A40EA06200860107DA8
:100FA00000F01F06012000FA06F3C8699843C861E3
:100FB000A1F50071D069C8B9D1F80C029843C1F805
:100FC0000C02908880B2968940EA064601F51070BE
:100FD000576940F83760108880B2168940EA0646A3
:100FE00001F51070576900EBC7004660D069012811
:100FF00019D1D1F80C021843C1F80C02908880B2C4
:10100000168840EA064601F51070576940F83760C7
:10101000908980B2168940EA064601F5107057693A
:1010200000EBC7004660906928B9D1F804029843E4
:10103000C1F8040204E0D1F804021843C1F8040224
:10104000106928B9D1F814029843C1F8140204E0D9
:10105000D1F814021843C1F81402106A012804D10F
:10106000D1F81C021843C1F81C02D1F8000220F08C
:101070000100C1F800020020F0BDFFE7606A40F403
:10108000802060620120F7E700640040704770B57F
:10109000044694F82050012D01D0022D7DD151B984
:1010A0002068C06800F0030080B9606A40F4001056
:1010B0006062012070BD2068006900F0030028B95B
:1010C000606A40F4001060620120F3E7206800F5D8
:1010D000D87000EB0110006800F004009060906888
:1010E00040B9206800F5D87000EB01100068400D91
:1010F000106007E0206800F5D87000EB0110006870
:10110000C0085060206800F5D87000EB011000683E
:1011100000F00200D060206800F5D87000EB0110EC
:10112000406800F00F00082802D30820106108E092
:10113000206800F5D87000EB0110406800F00F0047
:101140001061206800F5D87000EB0110406800F4D1
:101150007F40000A9061206800F5D87000EB011014
:101160004068000C5061206800F5D87000EB011059
:1011700080681870206800F5D87000EB0110806856
:1011800000F47F40000A5870206800F5D87000EB2A
:101190000110806800F47F0000E03CE0000C9870D3
:1011A000206800F5D87000EB01108068000ED87040
:1011B000206800F5D87000EB0110C0681871206835
:1011C00000F5D87000EB0110C06800F47F40000A01
:1011D0005871206800F5D87000EB0110C06800F469
:1011E0007F00000C9871206800F5D87000EB0110AA
:1011F000C068000ED87131B92068C06840F0200086
:101200002668F06005E02068006940F0200026684C
:10121000306100204EE7606A40F480206062012067
:1012200048E72DE9F05F04460025206846692068FC
:10123000D0F80490206887682068D0F80CA0206857
:10124000D0F810B02068D0F8188006F0010000280F
:1012500055D007F00100C0B101202168886007F077
:10126000020018B1204600F0E2FB0EE007F0040097
:1012700010B145F4006508E007F0080010B145F42E
:10128000805502E0204600F0D1FB07F48070C8B121
:101290004FF480702168886007F4007018B1204610
:1012A00000F0C7FB0EE007F4806010B145F4005574
:1012B00008E007F4006010B145F4804502E02046E4
:1012C00000F0B6FB07F48030C8B14FF480302168DD
:1012D000886007F4003018B1204600F0ACFB0EE047
:1012E00007F4802010B145F4004508E007F4002021
:1012F00010B145F4803502E0204600F09BFB06F07B
:10130000080038B10AF0100020B145F40075102033
:101310002168C86006F0040040B10AF0080028B156
:1013200008202168C860204600F02EFA06F002006E
:1013300038B12068C06800F0030010B1204600F00A
:1013400025FA06F0400038B10BF0100020B145F44A
:10135000806510202168086106F0200040B10BF084
:10136000080028B1082021680861204600F02CFB05
:1013700006F0100038B12068006900F0030010B1D9
:10138000204600F022FB06F4003040B109F01000C6
:1013900028B1102021684860204600F017FB06F4B1
:1013A000803040B109F0080028B108202168486069
:1013B000204600F041FB06F4004088B309F0040029
:1013C00078B306F4807020B108F0010008B145F050
:1013D000010506F4007020B108F0020008B145F0E4
:1013E000020506F4806020B108F0040008B145F061
:1013F000040506F40060A0B108F0700088B108F0A0
:101400007000402817D006DC10280BD020280CD004
:10141000302819D10CE0502810D0602814D110E0E9
:101420001DE019E045F008050FE045F010050CE05F
:1014300045F0200509E045F0400506E045F080054F
:1014400003E045F4807500E000BF00BF20688069BC
:1014500020F07000216888610420216848602DB167
:10146000606A284360622046FFF710FEBDE8F09FE7
:1014700070B504460CB9012070BD94F8200010B975
:10148000204600F0AFF82068006840F001002168B5
:10149000086000F02BFE05460DE000F027FE401B23
:1014A0000A2808D9606A40F400306062052084F898
:1014B00020000120E0E72068406800F001000028DB
:1014C000EBD02068006820F002002168086000F07E
:1014D0000DFE05460DE000F009FE401B0A2808D964
:1014E000606A40F400306062052084F8200001202A
:1014F000C2E72068406800F002000028EBD1207E9F
:10150000012806D12068006840F08000216808604A
:1015100005E02068006820F0800021680860607E97
:10152000012806D12068006840F04000216808606A
:1015300005E02068006820F0400021680860A07E77
:10154000012806D12068006840F02000216808606A
:1015500005E02068006820F0200021680860E07E37
:10156000012806D12068006820F01000216808607A
:1015700005E02068006840F0100021680860207FC6
:10158000012806D12068006840F008002168086042
:1015900005E02068006820F0080021680860607F8E
:1015A000012806D12068006840F004002168086026
:1015B00005E02068006820F0040021680860D4E994
:1015C0000201084321690843616908436168491EB3
:1015D00008432168C86100206062012084F820006F
:1015E000002049E710B586B00446142101A8FEF793
:1015F000A4FE5F492068884252D15E480068401CC2
:101600005C4908600846006801280FD100BF00202F
:1016100000905948006840F000705749086008463B
:10162000006800F00070009000BF00BF00BF002005
:10163000009051481038006840F001004E491039C0
:1016400008600846006800F00100009000BF00BF7D
:101650004FF4C0500190022002900020039003201C
:1016600004900920059001A9444800F045FC00229F
:101670000521132000F0CEFD132000F0B7FD00225D
:101680000521142000F0C6FD142000F0AFFD00225B
:101690000521152000F0BEFD152000F0A7FD65E036
:1016A00037492068884261D100BF0020009032484D
:1016B000006840F08060304908600846006800F02B
:1016C0008060009000BF00BF2A480068401C294984
:1016D00008600846006801280FD100BF0020009074
:1016E0002548006840F000702349086008460068FB
:1016F00000F00070009000BF00BF00BF002000900D
:101700001D481038006840F002001B49103908607D
:101710000846006800F00200009000BF00BF4FF4D0
:10172000405001900220029000200390032004907A
:101730000920059001A9134800F0DEFB00220521D5
:101740003F2000F067FD3F2000F050FD0022052102
:10175000402000F05FFD402000F048FD0022052100
:10176000412000F057FD412000F040FD06B010BDC3
:101770000064004010000020403802400000024099
:1017800000680040000402407047000010B58AB0B5
:1017900004468948844275D101AB03AA0021204642
:1017A000FFF775FC0398A0F2011005286BD2DFE863
:1017B00000F00324456B94009DF804007F494872B3
:1017C0009DF805107D4881729DF80610C1729DF844
:1017D000071001739DF8081041739DF8091081737B
:1017E0009DF80A00012801D1012100E00021734881
:1017F000C1739DF80B10017499E09DF804006F49C6
:1018000088749DF805106D48C1749DF80610017527
:101810009DF8071041759DF8081081759DF8091015
:10182000C1759DF80A00012801D1012100E00021C5
:10183000624801769DF80B10417678E09DF804002F
:101840005E49C8769DF805105C4801779DF8061042
:1018500041779DF8071081779DF80810C1779DF8B2
:10186000091080F820109DF80A00012801D10121FB
:1018700000E00021514880F821109DF80B1080F8FD
:10188000221054E055E051E09DF804004B4981F8E6
:1018900024009DF80510494880F825109DF8061091
:1018A00080F826109DF8071080F827109DF8081082
:1018B00080F828109DF8091080F829109DF80A007A
:1018C000012801D1012100E000213C4880F82A10C4
:1018D0009DF80B1080F82B1029E09DF80400374983
:1018E00081F82D009DF80510344880F82E109DF8E1
:1018F000061080F82F109DF8071080F830109DF822
:10190000081080F831109DF8091080F832109DF809
:101910000A00012801D1012100E00021274880F8B8
:1019200033109DF80B1080F8341000E000BF00BFAA
:1019300040E0234884423DD101AB03AA0021204668
:10194000FFF7A5FB0398972805D0A0F2012020B34C
:1019500064282CD126E09DF805009DF8041040EA8B
:10196000012000B21749C8819DF807009DF80610B4
:1019700040EA012001B2134801829DF809009DF858
:10198000081040EA012001B20E4841829DF80A1079
:1019900081829DF80B10C1820AE09DF8041009486D
:1019A000018305E09DF804100648418300E000BF74
:1019B00000BF00BF0AB010BDF0120020CC640020B0
:1019C000C81200204064002070477047704770B50F
:1019D000044694F82000012822D1022084F8200037
:1019E0002068006820F001002168086000F07EFB9C
:1019F00005460DE000F07AFB401B0A2808D9606A12
:101A000040F400306062052084F82000012070BDA1
:101A10002068406800F001000028EBD16062F6E722
:101A2000606A40F4002060620120F0E77047704770
:101A30007047704770477047704770B50446A56D92
:101A400000F054FB064694F83500022808D08020A8
:101A5000606500BF002084F8340000BF012070BD25
:101A60002068006820F0160021680860206840693E
:101A700020F0800021684861206C08B9A06C28B172
:101A80002068006820F0080021680860206800686D
:101A900020F001002168086010E000F027FB801BA7
:101AA00005280BD920206065032084F8350000BF8D
:101AB000002084F8340000BF0320D0E720680068CD
:101AC00000F001000028E8D194F85C103F20884025
:101AD000A860012084F8350000BF002084F834009D
:101AE00000BF00BFBBE7014691F83500022803D0D4
:101AF0008020486501207047052081F8350008687E
:101B0000006820F001000A6810600020F3E7000080
:101B1000F8B50446002000908C4800684FF4165138
:101B2000B0FBF1F7A56D2E6894F85C100820884092
:101B3000304098B12068006800F0040070B120685F
:101B4000006820F004002168086094F85C10082008
:101B50008840A860606D40F00100606594F85C10FA
:101B600001208840304068B12068406900F0800062
:101B700040B194F85C1001208840A860606D40F08E
:101B80000200606594F85C1004208840304068B121
:101B90002068006800F0020040B194F85C10042056
:101BA0008840A860606D40F00400606594F85C10A7
:101BB00010208840304078B32068006800F00800AA
:101BC00050B394F85C1010208840A860206800682A
:101BD00000F4802080B12068006800F4002028B95B
:101BE000206CC8B12046216C884715E0A06C98B1E4
:101BF0002046A16C88470FE02068006800F48070E0
:101C000028B92068006820F0080021680860206C6E
:101C100010B12046216C884794F85C102020884041
:101C20003040002865D02068006800F010000028CF
:101C30005FD094F85C1020208840A86094F83500AC
:101C4000052828D12068006820F016002168086067
:101C50002068406920F0800021684861206C08B944
:101C6000A06C28B12068006820F008002168086096
:101C700094F85C103F208840A860012084F835006B
:101C800000BF002084F8340000BF206D10B1204652
:101C9000216D8847F8BD2068006800F4802080B17D
:101CA0002068006800F4002028B9606C10B120465C
:101CB000616C88471DE0E06BD8B12046E16B884736
:101CC00017E02068006800F4807068B92068006838
:101CD00020F0100021680860012084F8350000BF62
:101CE000002084F8340000BFE06B10B12046E16BA7
:101CF0008847606D38B3606D00F00100F0B10520D9
:101D000084F835002068006820F001002168086030
:101D100000BF0098401C0090B84200D905E0206840
:101D2000006800F001000028F3D100BF012084F812
:101D3000350000BF002084F8340000BFE06C10B113
:101D40002046E16C884700BFA4E700002000002087
:101D50002DE9F0410446002500F0C8F9074614B902
:101D60000120BDE8F081606A00B100BF022084F864
:101D7000350000BF002084F8340000BF20680068F0
:101D800020F00100216808600AE000F0AFF9C01BF4
:101D9000052805D920206065032084F83500E0E798
:101DA0002068006800F001000028EED12068056876
:101DB00021480540D4E901010843E168084321694D
:101DC000084361690843A1690843E1690843216A3E
:101DD00008430543606A042803D1D4E90B01084392
:101DE0000543206805602068456925F00705606A9D
:101DF0000543606A04280DD1A06A0543E06A48B132
:101E00002046FEF76DFF28B140206065012084F870
:101E10003500A6E7206845612046FEF747FF0646E5
:101E200094F85C103F208840B0600020606501207D
:101E300084F83500002094E73F8010F02DE9F0474A
:101E400004460D4616461F464FF00008D4F8589039
:101E500000BF94F83400012802D10220BDE8F087C9
:101E6000012084F8340000BF94F83500012825D102
:101E7000022084F83500002060653B463246294642
:101E80002046FEF782FF94F85C103F208840C9F896
:101E900008002068006840F0160021680860206C87
:101EA00028B12068006840F00800216808602068B8
:101EB000006840F001002168086006E000BF0020D3
:101EC00084F8340000BF4FF002084046C6E7000027
:101ED00070B5044600F00AF906462546681C10B1A4
:101EE00004480078054400BF00F000F9801BA842B8
:101EF000FAD370BD1C000020F8B502460B46002541
:101F0000002400200021D6E0012606FA01F51E6813
:101F100006EA0504AC4274D11E7906F00306012ED0
:101F200004D01E7906F00306022E13D190684F00EC
:101F30000326BE40B0434F00DE68BE403043906091
:101F4000506801268E40B0431E79C6F300168E40BD
:101F5000304350601E7906F00306032E09D0D06886
:101F60004F000326BE40B0434F009E68BE40304342
:101F7000D0601E7906F00306022E13D1CF0802F1BD
:101F8000200656F827004E07F70E0F26BE40B04336
:101F90004F07FF0E1E69BE403043CF0802F12006F6
:101FA00046F8270010684F000326BE40B0431E7954
:101FB00006F003064F00BE40304310605E6806F432
:101FC0004036002E76D000BF002600963C4E366884
:101FD00046F480463A4F3E603E46366806F48046F8
:101FE000009600BF00BF374E8F0856F827008E07B7
:101FF000370F0F26BE40B043334EB24202D1002607
:1020000024E057E0314EB24201D101261EE0304EAD
:10201000B24201D1022619E02E4EB24201D103266E
:1020200014E02D4EB24201D104260FE02B4EB242F5
:1020300001D105260AE02A4EB24201D1062605E06A
:10204000284EB24201D1072600E008268F073F0F35
:10205000BE4030431B4E8F0846F82700224E3068A2
:10206000A0435E6806F4801606B120431E4E306021
:10207000361D3068A0435E6806F4001606B12043A2
:10208000194E361D3060184E361F3068A0435E680A
:1020900006F4003606B12043134E361F3060361F5B
:1020A0003068A0435E6806F4803606B120430E4EC9
:1020B000083E3060491C1029FFF426AFF8BD00002F
:1020C0004438024008380140000002400004024049
:1020D00000080240000C02400010024000140240C0
:1020E00000180240001C0240083C01400148006802
:1020F0007047000014000020034800680349097875
:102100000844014908607047140000201C000020AA
:1021100010B50D48006840F400700B49086008468F
:10212000006840F4806008600846006840F48070F1
:102130000860032000F0ACF80F2000F007F800F072
:102140002BF8002010BD0000003C024070B5044692
:102150000E4800784FF47A71B1FBF0F00C49096831
:10216000B1FBF0F5284600F035FC08B1012070BD48
:10217000102C07D200222146501E00F04BF80548D3
:10218000046001E00120F2E70020F0E71C000020DD
:10219000200000201800002008B500BF002000909B
:1021A0001148006840F480400F4908600846006804
:1021B00000F48040009000BF00BF00BF00200090EE
:1021C000081F006840F08050091F0860084600683A
:1021D00000F08050009000BF00BF00220F21901E31
:1021E00000F018F808BD00004438024001460846D7
:1021F00000280DDB00BF00BF00F01F0301229A4042
:1022000043099B0003F1E023C3F8002100BF00BF96
:1022100000BF70472DE9F05F80460D461646002747
:1022200002F08CFD074639462A46334601F0070086
:10223000C0F1070ABAF1040F02D94FF0040A01E015
:10224000C0F1070AD14600F1040ABAF1070F02D221
:102250004FF0000A01E0A0F1030AD4464FF0010A52
:102260000AFA09FAAAF1010A0AEA020A0AFA0CFAB7
:102270004FF0010B0BFA0CFBABF1010B0BEA030B5C
:102280004AEA0B042146404602F060FDBDE8F09F9B
:1022900000BF00F00702064B19684FF6FF03194014
:1022A000044B0B4343EA0221014B196000BF704706
:1022B0000CED00E00000FA0570B504460D460CB9BF
:1022C000012070BD5848006800F00700A84209D2FC
:1022D00055490D700846006800F00700A84201D07B
:1022E0000120EEE7207800F0020002281DD12078BE
:1022F00000F00400042805D14C48006840F4E05088
:102300004A490860207800F00800082805D14748AD
:10231000006840F46040454908604448006820F087
:10232000F000A168084341490860207800F00100EE
:10233000A8B36068012807D13C4808380068C0F39A
:102340004040B8B90120BCE76068022802D060684C
:10235000032807D1354808380068C0F3406048B901
:102360000120AEE7314808380068C0F3400008B9E2
:102370000120A6E72D48006820F0030061680843AB
:102380002A490860FFF7B2FE064609E0FFF7AEFEF5
:10239000801B41F28831884202D9032091E707E08F
:1023A0002248006800F00C006168B0EB810FEDD1AD
:1023B0001D48006800F00700A84209D91A490D70AD
:1023C0000846006800F00700A84201D0012078E725
:1023D000207800F00400042807D11448006820F495
:1023E000E050E168084311490860207800F00800D7
:1023F000082808D10D48006820F46040216940EAAF
:10240000C1000A49086000F03FF808490968C1F3B3
:102410000311074A515CC840064908600648006835
:10242000FFF794FE00204CE7003C024008380240D1
:102430008C7300082000002018000020014800686C
:10244000704700002000002000B5FFF7F7FF0449A7
:102450000968C1F38221034A515CC84000BD0000F5
:10246000083802409C73000800B5FFF7E7FF0449F5
:102470000968C1F34231034A515CC84000BD000005
:10248000083802409C7300082DE9F047002400251D
:102490000026A1462548006800F00C0020B1042861
:1024A00005D008283AD105E0DFF8849039E0DFF85C
:1024B000849036E01D48001F006800F03F041B4870
:1024C000001F006800F4800078B11A481749091FFE
:1024D0000968C1F38811A0FB017001462246002360
:1024E0003846FDF7CDFE05460EE011480F49091F9D
:1024F0000968C1F38811A0FB017001462246002340
:102500003846FDF7BDFE05460848001F0068C0F3C9
:102510000140401C4600B5FBF6F902E0DFF81090E0
:1025200000BF00BF4846BDE8F08700000838024001
:102530000024F40000366E01F8B504460CB9012001
:10254000F8BD207800F00100002874D0F948006838
:1025500000F00C0004280DD0F648006800F00C00D4
:10256000082813D1F348001F006800F48000B0F57C
:10257000800F0BD1EF4808380068C0F340400028B6
:1025800059D06068002856D10120D9E700BF6068A3
:10259000B0F5803F08D1E7480838006840F4803043
:1025A000E449083908601EE06068B0F5A02F0DD13D
:1025B000E0480838006840F48020DE4908390860A7
:1025C0000846006840F4803008600CE0D9480838BC
:1025D000006820F48030D749083908600846006850
:1025E00020F48020086000BF606890B1FFF77EFD96
:1025F000054606E0FFF77AFD401B642801D9032059
:102600009EE7CC4808380068C0F340400028F1D06D
:1026100011E0FFF76BFD054606E0FFF767FD401B85
:10262000642801D903208BE7C24808380068C0F34A
:1026300040400028F1D1207800F0020002285FD14C
:10264000BC48006800F00C0058B1BA48006800F0BF
:102650000C0008281CD1B748001F006800F4800057
:10266000B0B9B44808380068C0F3400020B1E06851
:10267000012801D0012063E7AE480838006820F047
:10268000F800216940EAC100AA490839086037E02A
:10269000E06800B30120A8490860FFF727FD054660
:1026A00006E0FFF723FD401B022801D9032047E77E
:1026B000A04808380068C0F340000028F1D09D48C9
:1026C0000838006820F0F800216940EAC100994903
:1026D0000839086014E0002097490860FFF706FDFC
:1026E000054606E0FFF702FD401B022801D9032042
:1026F00026E7904808380068C0F340000028F1D170
:10270000207800F0080008282CD16069A8B10120C9
:102710008A490860FFF7EAFC054606E0FFF7E6FC99
:10272000401B022801D903200AE782486C30006868
:10273000C0F340000028F1D014E000207F49086079
:10274000FFF7D4FC054606E0FFF7D0FC401B02284B
:1027500001D90320F4E677486C300068C0F34000EC
:102760000028F1D1207800F00400042870D100275F
:1027700070483830006800F0805090B900BF0020E9
:1027800000906C483830006840F08050694938311A
:1027900008600846006800F08050009000BF00BF4D
:1027A00001276748006800F48070B0B96448006889
:1027B00040F4807062490860FFF798FC054606E027
:1027C000FFF794FC401B022801D90320B8E65C48BF
:1027D000006800F480700028F2D000BFA0680128D3
:1027E00008D154486830006840F001005149683110
:1027F00008601DE0A06805280DD14E4868300068CB
:1028000040F004004B49683108600846006840F019
:10281000010008600CE047486830006820F00100C3
:102820004449683108600846006820F004000860E8
:1028300000BFA068A8B1FFF759FC054609E0FFF703
:1028400055FC401B41F28831884202D9032077E6CB
:1028500026E0384868300068C0F340000028EED019
:1028600013E0FFF743FC054608E0FFF73FFC401B81
:1028700041F28831884201D9032061E62D48683051
:102880000068C0F340000028EFD1012F07D129488C
:102890003830006820F0805026493831086000BF89
:1028A000A069002845D02348006800F00C000828E3
:1028B0005DD0A069022845D100201F490866FFF7B6
:1028C00015FC054606E0FFF711FC401B022801D964
:1028D000032035E6174808380068C0F34060002838
:1028E000F1D1D4E907010843616A40EA811101226C
:1028F000A06AC2EB500041EA00412C20005D41EA91
:1029000000600C49091F086001200B490866FFF7A9
:10291000EDFB054606E0FFF7E9FB401B022801D965
:1029200003200DE6034808380068C0F34060002823
:10293000F1D049E00838024000004742800E47428B
:1029400000700040002021490866FFF7CFFB0546D4
:1029500006E0FFF7CBFB401B022801D90320EFE57F
:102960001B480068C0F340600028F2D12CE0A06949
:10297000012800D1E4E51648001D0668A069012879
:1029800020D006F48001E06981421BD106F03F01AE
:10299000206A814216D147F6C0703040616AB0EBC0
:1029A000811F0FD106F440310122A06AC2EB500012
:1029B000B1EB004F06D106F070612C20005DB1EB49
:1029C000006F01D00120BBE50020B9E500004742BF
:1029D0000038024070B504462546681EB0F1807F7D
:1029E00001D301200FE0681E4FF0E02148610F2164
:1029F0004FF0FF3002F0AAF900204FF0E02188618B
:102A000007200861002070BD10B50346002200BFFA
:102A100093F83C00012801D1022010BD012083F869
:102A20003C0000BF22F0FF00CC6840EA040222F420
:102A300040708C6840EA040222F480604C6840EAEE
:102A4000040222F400600C6840EA040222F4805080
:102A50000C6940EA040222F400504C6940EA040286
:102A600022F48040CC6940EA04021868426400BF46
:102A7000002083F83C0000BF00BFCEE730B502461F
:102A80000B4600BF92F83C00012801D1022030BD66
:102A9000012082F83C0000BF022082F83D0010684F
:102AA00044681068816824F0700418680443106852
:102AB0004460184D1068A8421BD01068B0F1804FD8
:102AC00017D0154D1068A84213D0144D1068A842B5
:102AD0000FD0134D1068A8420BD0124D1068A842B9
:102AE00007D0114D1068A84203D0104D1068A842BD
:102AF00005D121F0800158680143106881600120F0
:102B000082F83D0000BF002082F83C0000BF00BFFB
:102B1000BDE7000000000140000400400008004044
:102B2000000C00400004014000400140001800403B
:102B300010B504460CB9012010BD94F83D0028B929
:102B4000002084F83C00204600F026F8022084F89B
:102B50003D00211D206801F011FB012084F8460092
:102B600000BF84F83E0001213F200155402001555F
:102B70004120015500BF00BF012084F842004320DE
:102B80000155442001554520015500BF012084F81E
:102B90003D000020D0E7000038B5044638492068E1
:102BA000884233D100BF002000903648006840F0D2
:102BB0000100344908600846006800F001000090F8
:102BC00000BF00BF3048314908604FF040604860A6
:102BD00040212E4881600021C1604FF48061016175
:102BE00049004161890081610021C1614FF4803158
:102BF000016200214162FFF7ABF808B1FEF7DCF893
:102C000000BF224961620846846338E02049206899
:102C1000884234D100BF002000901A48006840F07C
:102C20000200184908600846006800F002000090A1
:102C300000BF00BF14481830164908604FF06060AC
:102C400048604021134881600021C1604FF48061D9
:102C5000016149004161890081610021C1614FF436
:102C60008031016200214162FFF772F808B1FEF77E
:102C7000A3F800BF0749E1620846846300BF38BD7E
:102C8000000001404438024058640240A81300206C
:102C900000040140081400202DE9F04104460D46CF
:102CA000002700BF94F83C00012802D10220BDE8B3
:102CB000F081012084F83C0000BF022084F83D0030
:102CC0002068866826F0770626F47F4620688660AE
:102CD0002868502833D00CDC202850D004DC002891
:102CE0004BD0102851D149E0302849D040284CD150
:102CF00039E060282DD0702807D0B0F5805F03D070
:102D0000B0F5005F41D10DE041E0D5E902136A68FA
:102D1000206801F037FB2068866846F07706206857
:102D2000866034E0D5E902136A68206801F02AFB66
:102D30002068806840F480402168886027E0EA6865
:102D40006968206801F00EFC5021206801F025FB25
:102D50001DE0EA686968206801F017FC60212068BE
:102D600001F01BFB13E0EA686968206801F0FAFBD8
:102D70004021206801F011FB09E000BF00BF00BF47
:102D80002968206801F009FB01E0012700BF00BFAE
:102D9000012084F83D0000BF002084F83C0000BF03
:102DA000384684E77047000010B586B00446142109
:102DB00001A8FDF7C2FA2349206888421ED100BF4E
:102DC000002000902048006840F010001E49086074
:102DD0000846006800F01000009000BF00BF4815D2
:102DE0000190022002900020039002200490012014
:102DF000059001A91548FFF77FF821E014492068E4
:102E000088421DD100BF002000900F48006840F0AC
:102E100004000D4908600846006800F004000090B6
:102E200000BF00BF8815019002200290002003908F
:102E3000022004900320059001A90648FFF75CF8E2
:102E400006B010BD000001403038024000100240C2
:102E500000040140000802402DE9F04104460D46FF
:102E60001646002700BF94F83C00012802D102203A
:102E7000BDE8F081012084F83C0000BF36B1042E8B
:102E80001BD0082E31D00C2E5ED145E0294620689B
:102E900001F08CFA2068806940F0080021688861A0
:102EA0002068806920F004002168886120688069BA
:102EB000296908432168886148E02946206801F0B3
:102EC000ADFA2068806940F400602168886120685C
:102ED000806920F4806021688861206880692969A0
:102EE00040EA01202168886130E02946206801F02D
:102EF000D3FA2068C06940F008002168C8612068E2
:102F0000C06920F004002168C8612068C06929698F
:102F100008432168C86119E02946206801F0F8FAE1
:102F20002068C06940F400602168C8612068C069F9
:102F300020F480602168C8612068C069296940EA7E
:102F400001202168C86101E0012700BF00BF00BF68
:102F5000002084F83C0000BF384689E710B50446DD
:102F60000CB9012010BD94F83D0028B9002084F868
:102F70003C00204600F025F8022084F83D00211D89
:102F8000206801F0FBF8012084F8460000BF84F8B7
:102F90003E0001213F2001554020015541200155AF
:102FA00000BF00BF012084F84200432001554420A7
:102FB00001554520015500BF012084F83D00002047
:102FC000D0E77047704770472DE9F04704460D463B
:102FD00016461F464FF0000815B994F83E000BE066
:102FE000042D02D13F20005D06E0082D02D14020D3
:102FF000005D01E04120005D022801D1BDE8F087BD
:1030000015B994F83E000BE0042D02D13F20005D7D
:1030100006E0082D02D14020005D01E04120005D66
:10302000012818D106B10FB90120E7E71DB9022028
:1030300084F83E0011E0042D03D102213F20015508
:103040000BE0082D03D102214020015505E00221AB
:103050004120015501E00120D0E735B1042D1FD0FA
:10306000082D38D00C2D6CD150E06049606AC163E6
:103070005F49606A01645F49606AC164216801F167
:1030800034023B463146606AFEF7D8FE08B10120A3
:10309000B4E72068C06840F400702168C86053E05D
:1030A0005249A06AC1635249A06A01645149A06AA9
:1030B000C164216801F138023B463146A06AFEF73F
:1030C000BDFE08B1012099E72068C06840F4806027
:1030D0002168C86038E04549E06AC1634449E06A54
:1030E00001644449E06AC164216801F13C023B4645
:1030F0003146E06AFEF7A2FE08B101207EE72068B3
:10310000C06840F400602168C8601DE03749206B4A
:10311000C1633749206B01643649206BC164216863
:1031200001F140023B463146206BFEF787FE08B1B5
:10313000012063E72068C06840F480502168C860BF
:1031400002E04FF0010800BF00BFB8F1000F4AD104
:1031500001222946206801F081F827492068884229
:1031600003D026492068884201D1012000E00020D8
:1031700028B12068406C40F40040216848641E4932
:10318000206888421BD02068B0F1804F17D01C49BE
:103190002068884213D01B49206888420FD01A4902
:1031A000206888420BD015492068884207D017490B
:1031B0002068884203D01649206888420DD12068D3
:1031C000806800F00709B9F1060F0CD0206800688C
:1031D00040F001002168086005E02068006840F0C8
:1031E000010021680860404608E700007F420008AF
:1031F000E7420008274300080000014000040140A6
:103200000004004000080040000C00400040014065
:103210000018004070B504460D46002635B1042D57
:103220000ED0082D16D00C2D28D11DE02068C068C6
:1032300020F400702168C860606AFEF754FC1FE04B
:103240002068C06820F480602168C860A06AFEF72A
:103250004AFC15E02068C06820F400602168C8605E
:10326000E06AFEF740FC0BE02068C06820F4805064
:103270002168C860206BFEF736FC01E0012600BF24
:1032800000BF002E4AD100222946206800F0E6FF48
:1032900023492068884203D022492068884201D10E
:1032A000012000E0002090B100BF2068006A41F2D8
:1032B0001111084050B92068006A8910084028B9E7
:1032C0002068406C20F400402168486400BF00BFC3
:1032D0002068006A41F21111084050B92068006A64
:1032E0008910084028B92068006820F00100216892
:1032F000086000BF1DB9012084F83E000EE0042DD7
:1033000003D101213F20015508E0082D03D10121FF
:103310004020015502E0012141200155304670BD99
:103320000000014000040140704770472DE9F84F4C
:103330000446206805682068C668206847694FF021
:103340000009CA4605F00F09B9F1000F0AD105F0CE
:10335000200038B106F0200020B1204601F078F9B5
:10336000BDE8F88FB9F1000F7CD007F0010018B963
:1033700006F49070002875D005F0010030B106F415
:10338000807018B1606C40F00100606405F00400CA
:1033900030B107F0010018B1606C40F002006064C9
:1033A00005F0020030B107F0010018B1606C40F088
:1033B0000400606405F0080048B106F0200010B970
:1033C00007F0010018B1606C40F008006064606CA8
:1033D000002846D005F0200028B106F0200010B1EA
:1033E000204601F035F920684069C0F3801A606C0E
:1033F00000F0080010B9BAF1000F2DD0204601F0FE
:10340000E1F82068406900F04000402820D100BF6A
:1034100000BF2168143151E8001F21F040002168ED
:10342000143141E80002002AF3D100BFE06B50B133
:103430007F48E16B0865E06BFEF755FB88B1E06BF8
:10344000016D88470DE02046FFF76FFF09E009E0B6
:103450002046FFF76AFF04E02046FFF766FF0020E2
:1034600060647DE7206B012878D105F0100000280A
:1034700074D006F010000028FAD000BF00200090A1
:1034800020680068009020684068009000BF00BF7E
:103490002068406900F04000402870D1E06B00686F
:1034A00040681FFA80F8B8F1000F58D0A08D404551
:1034B00055DDA4F82E80E06BC069B0F5807F43D065
:1034C00000BF00BF21680C3151E8001F21F480705B
:1034D00021680C3141E80002002AF3D100BF00BF8F
:1034E00000BF2168143151E8001F21F0010021685C
:1034F000143141E80002002AF3D100BF00BF00BF31
:103500002168143151E8001F21F040002168143176
:1035100041E80002002AF3D100BF202084F84200D5
:103520000020206300BF00BF21680C3151E8001F5C
:1035300021F0100021680C3141E80002002AF3D18B
:1035400000BFE06BFEF779FA02206063A08DE28D88
:10355000801A81B22046FFF7E7FE0EE052E0A08D10
:1035600040450AD1E06BC069B0F5807F05D10220EB
:103570006063A18D2046FFF7D7FEF1E6FFE7A08D3F
:10358000E18D401A1FFA80F8E08DD0B3B8F1000F3A
:1035900037D000BF00BF21680C3151E8001F21F473
:1035A000907021680C3141E80002002AF3D100BF7D
:1035B00000BF00BF2168143151E8001F21F0010055
:1035C0002168143141E80002002AF3D100BF202015
:1035D00084F842000020206300BF00BF21680C3146
:1035E00051E8001F21F0100021680C3141E8000271
:1035F000002AF3D100BF0220606341462046FFF756
:1036000093FEADE605F0800030B106F0800018B101
:10361000204601F0D1F9A3E605F0400030B106F0F4
:10362000400018B1204601F003F899E600BF97E684
:10363000B345000810B504460CB9012010BDA069BF
:1036400000B100E000BF94F8410028B9002084F8E0
:103650004000204600F02AF8242084F84100206829
:10366000C06820F400502168C860204601F06EF860
:103670002068006920F49040216808612068406952
:1036800020F02A00216848612068C06840F400509A
:103690002168C86000206064202084F8410084F81C
:1036A00042000020606300BFC8E7000010B586B08C
:1036B0000446142101A8FCF740FE80492068884296
:1036C0007BD100BF002000907D48006840F40030AE
:1036D0007B4908600846006800F40030009000BF95
:1036E00000BF00BF0020009075481038006840F00F
:1036F00008007349103908600846006800F00800A7
:10370000009000BF00BF60200190022002900020C6
:103710000390022004900720059001A96948FEF754
:10372000EBFB6948694908604FF000604860002180
:1037300066488160C1604FF4806101610021416190
:103740008161C1614FF44031016200214162FEF7A5
:10375000FFFA08B1FDF730FB00BF5C48E06384630B
:1037600000BF594818305A4908604FF0006048605F
:103770004021574881600021C1604FF480610161A0
:10378000002141618161C1614FF44031016200213A
:103790004162FEF7DDFA08B1FDF70EFB00BF4C48B1
:1037A000A063846300BF002205212620FEF732FDBE
:1037B0002620FEF71BFD7FE0FFE746492068884290
:1037C0007AD100BF002000903D48001D006840F005
:1037D00020003B49091D08600846006800F02000F1
:1037E000009000BF00BF00BF002000903448103898
:1037F000006840F00400324910390860084600684B
:1038000000F00400009000BF00BFC0200190022023
:10381000029000200390032004900820059001A945
:103820002D48FEF769FB2D482D490860800548604A
:1038300000212B488160C1604FF48061016100214B
:1038400041618161C1614FF48031016200214162B7
:10385000FEF77EFA08B1FDF7AFFA00BF2048E0633B
:10386000846300BF1D4878301E4908604FF0206017
:10387000486040211B4881600021C1604FF4806195
:103880000161002141618161C1614FF480310162B8
:1038900000214162FEF75CFA08B1FDF78DFA00BF26
:1038A0001048A063846300BF002205214720FEF773
:1038B000B1FC4720FEF79AFC06B010BD0044004062
:1038C00040380240000C024088600240F81400209A
:1038D00058150020001401400008024028640240EE
:1038E000B81500201816002070B504460D4616467F
:1038F00094F8420020280BD105B10EB9012070BD0B
:103900000020206332462946204601F035F8F6E7CC
:103910000220F4E710B504461949206888422ED1E8
:103920001848007830380A281ED2DFE800F0050970
:103930000D11151D1D1D1D1900201349088018E0CB
:1039400001201149088014E002200F49088010E08E
:1039500003200D4908800CE004200B49088008E092
:1039600009200949088004E040F29A2006490880AD
:1039700000BF00BF012203490448FFF7B5FF10BD97
:10398000004400406E0100206C01002068140020FB
:10399000704700BFFEE70000FEF7A8FB0446FCF7F7
:1039A000ABFC08E0044803F03FF8034802F012FBC8
:1039B000012003F047F9F5E79863002010B50E48A1
:1039C0000E4908600320486000210C488160C160F6
:1039D0004FF4102101614FF4001141610021017683
:1039E00041768176C17601774177FDF741FD08B1D7
:1039F000FDF7E2F910BD000000640040C81200208D
:103A000010B50E480E4908600320486000210C489C
:103A10008160C1604FF4102101614FF400114161D8
:103A20000021017641768176C17601774177FDF7F5
:103A30001FFD08B1FDF7C0F910BD0000006800408F
:103A4000F012002008B500BF002000902648006852
:103A500040F40010244908600846006800F4001093
:103A6000009000BF00BF00BF002000900846006823
:103A700040F4800008600846006800F48000009070
:103A800000BF00BF002205211020FEF7C3FB10205D
:103A9000FEF7ACFB002205211120FEF7BBFB112035
:103AA000FEF7A4FB002205213920FEF7B3FB3920E5
:103AB000FEF79CFB002205213B20FEF7ABFB3B20E1
:103AC000FEF794FB002205213C20FEF7A3FB3C20DF
:103AD000FEF78CFB002205214520FEF79BFB4520CD
:103AE000FEF784FB08BD00003038024000B59DB0F1
:103AF0001C22184916A8FCF707FC002116A801F0A3
:103B00007EFE154908601C2212491C310FA8FCF7E3
:103B1000FBFB00210FA801F072FE104908601C2277
:103B20000C49383108A8FCF7EFFB002108A801F088
:103B300066FE0B4908601C220649543101A8FCF7B7
:103B4000E3FB002101A801F05AFE064908601DB000
:103B500000BD0000147300080000002004000020D5
:103B6000080000200C00002000B587B0142102A836
:103B7000FCF7E3FB00BF002001904048006840F0E4
:103B800080003E4908600846006800F0800001900F
:103B900000BF00BF00BF002001900846006840F051
:103BA000010008600846006800F00100019000BFB5
:103BB00000BF00BF002001900846006840F00400EC
:103BC00008600846006800F00400019000BF00BFD4
:103BD00000BF002001900846006840F00200086025
:103BE0000846006800F00200019000BF00BF00BF5F
:103BF000002001900846006840F010000860084668
:103C0000006800F01000019000BF00BF00BF00205E
:103C100001900846006840F0080008600846006807
:103C200000F00800019000BF00BF4020029000207B
:103C30000390049002A91248FEF75EF9102002904A
:103C400000200390049002A90E48FEF755F90520C4
:103C5000029000200390049002A90B48FEF74CF953
:103C60004FF4E0400290002003900120049002A94C
:103C70000648FEF741F907B000BD000030380240A9
:103C80000000024000080240000402400010024010
:103C900000B595B0002011901290139014900F90E1
:103CA00010901C2108A8FCF748FB20216846FCF76F
:103CB00044FB2B482B49086000204860002129481C
:103CC0008160D121C1600021016141618161FEF704
:103CD0002FFF08B1FDF770F84FF48050119011A933
:103CE0002048FEF7D9FF08B1FDF766F81D48FFF739
:103CF00035F908B1FDF760F800200F9010900FA97A
:103D00001848FEF7BBFE08B1FDF756F86020089092
:103D10004320099000200A900B900C900D900E907B
:103D2000002208A90F48FFF797F808B1FDF744F8FB
:103D30000020009001900290039004904FF40050F6
:103D400005900020079069460648FEF75DFE08B121
:103D5000FDF732F80348FFF727F815B000BD000063
:103D6000000001401813002000B595B0002011900C
:103D70001290139014900F9010901C2108A8FCF73B
:103D8000DCFA20216846FCF7D8FA2A482A4908605C
:103D900000204860002128488160D121C1600021B5
:103DA000016141618161FEF7C3FE08B1FDF704F8CE
:103DB0004FF48050119011A91F48FEF76DFF08B114
:103DC000FCF7FAFF1C48FFF7C9F808B1FCF7F4FF4D
:103DD00000200F9010900FA91748FEF74FFE08B172
:103DE000FCF7EAFF60200890002009900A900B90F1
:103DF0000C900D900E90082208A90F48FFF72CF8A0
:103E000008B1FCF7D9FF00200090019002900390C8
:103E100004904FF400500590002007906946064832
:103E2000FEF7F2FD08B1FCF7C7FF0348FEF7BCFF41
:103E300015B000BD000401406013002010B50B4810
:103E40000B4908604FF41650486000210848816013
:103E5000C16001610C21416100218161C161FFF7F5
:103E6000E9FB08B1FCF7A8FF10BD000000440040CA
:103E70006814002010B50B480B4908604FF4E1307E
:103E80004860002108488160C16001610C214161E6
:103E900000218161C161FFF7CDFB08B1FCF78CFF08
:103EA00010BD000000140140B014002000BFFEE768
:103EB0000D4801F075FC16E00B4801F029FC0120CB
:103EC000FCF7F8FD02210846FCF70EFE064991EDCD
:103ED000190ABDEEC00A10EE101A08B2FCF7CEFDAA
:103EE000012002F0AFFEE7E79863002000BFFEE785
:103EF00000B102B97047017092ED001A80ED011A0D
:103F000092ED011A80ED021A92ED021A80ED031A69
:103F100080ED040AC0ED050A9FED0C1A80ED0E1A23
:103F200080ED0D1A80ED0C1A9FED081A80ED081A2D
:103F300080ED0B1A80ED0A1A80ED091A80ED111A36
:103F400080ED101A80ED0F1A00BFD3E700000000CB
:103F500010B52DED108B9FED3A0BB0EE408AF0EED0
:103F6000608A9FED390BB0EE40AAF0EE60AA9FED9B
:103F7000380BB0EE409AF0EE609A9FED370BB0EE42
:103F800040BAF0EE60BAFCF7ADF90446FCF768FB06
:103F900041EC1F0B9FED320B53EC102BFCF7F1FAA9
:103FA00041EC1D0B53EC182B51EC1A0BFCF771FA7A
:103FB00041EC1E0B53EC1D2BFCF771FA41EC1C0B72
:103FC00053EC182BFCF7C4F9274A03C2FCF78AF913
:103FD0000446FCF745FB41EC1F0B9FED210B53EC16
:103FE000102BFCF7CEFA41EC1D0B53EC192B51ECC6
:103FF0001B0BFCF74EFA41EC1E0B53EC1D2BFCF790
:104000004EFA41EC1C0B53EC192BFCF7A1F9164AA4
:10401000C2E90201104690ED001BB0EE410AF0EE3D
:10402000610A53EC102B9FED111B51EC110BFCF7A7
:1040300030FA0D4AC2E90401BDEC108B10BD00003E
:10404000F6285C8FC2F5E83FB81E85EB51B8F03F0B
:10405000BE9F1A2FDD24FE3F00000000000000403C
:104060000000C0FFFFFFDF4180630020B81E85EB2A
:1040700051B8004000BF012001F0B0FBFBE7000099
:10408000044908780121044A02EBC002D1700349B7
:1040900008707047F0000020506300201C010020D1
:1040A00010B5FEF729F802F0FFFF012801D002F059
:1040B00051FF10BD00B593B0302107A8FCF73DF9C2
:1040C000142102A8FCF739F900BF00200190244810
:1040D000006840F08050224908600846006800F0FF
:1040E0008050019000BF00BF00BF002001901D481C
:1040F000006840F480401B4908600846006800F4EE
:104100008040019000BF00BF01200790000408908C
:1041100002200D9041050E910C210F91A8211091C4
:10412000022111910421129107A8FEF705FA08B1A6
:10413000FCF742FE0F200290022003900020049022
:104140004FF4A05005904FF480500690052102A82E
:10415000FEF7B2F808B1FCF72FFE13B000BD000067
:1041600040380240007000400348006840F470008E
:10417000014908607047000088ED00E010B5026852
:104180002B4B98420ED0B0F1804F0BD0294B984268
:1041900008D0294B984205D0284B984202D0284B92
:1041A000984203D122F070024B681A43204B984288
:1041B00020D0B0F1804F1DD01E4B98421AD01E4B1C
:1041C000984217D01D4B984214D01D4B984211D0E5
:1041D0001C4B98420ED01C4B98420BD01B4B984264
:1041E00008D01B4B984205D01A4B984202D01A4B6C
:1041F000984203D122F44072CB681A4322F0800324
:104200004C6943EA04028B68C3620B688362084B03
:10421000984202D00A4B984201D10B6903630368AC
:1042200043F00403036001234361026010BD0000FA
:10423000000001400004004000080040000C004065
:10424000000401400040014000440140004801409A
:1042500000180040001C00400020004030B501F074
:104260001F05012404FA05F3046A9C430462046AEE
:1042700001F01F0502FA05F52C43046230BD70B54C
:104280000546AC6B606AA84207D101202077E86937
:1042900018BB012084F83E001FE0A06AA84207D1A5
:1042A00002202077E869C0B901213F20015514E0C0
:1042B000E06AA84207D104202077E86968B90121A3
:1042C0004020015509E0206BA84206D10820207744
:1042D000E86910B90121412001552046FEF772FE20
:1042E0000020207770BD70B50546AC6B606AA842AF
:1042F00002D10120207710E0A06AA84202D102205A
:1043000020770AE0E06AA84202D10420207704E086
:10431000206BA84201D1082020772046FEF753FEEB
:104320000020207770BD70B50546AC6B606AA8426E
:1043300004D10120207784F83E001DE0A06AA84245
:1043400005D10220207701213F20015514E0E06AC9
:10435000A84205D1042020770121402001550BE01F
:10436000206BA84205D1082020770121412001556A
:1043700002E0012084F83D002046FEF713FD0020F6
:10438000207770BD30B50C46816821F47F4142EA48
:10439000032525432943816030BD0A46816821F009
:1043A000700142F0070319438160704730B5026A1B
:1043B000056A25F0010505624368846924F07004EC
:1043C00024F003040D682C4322F002028D682A4376
:1043D000104DA84200D103E00F4DA84206D100BF06
:1043E00022F00802CD682A4322F00402094DA842B7
:1043F00002D0094DA84207D123F4807323F400733F
:104400004D692B438D692B43436084614D6845633F
:10441000026230BD000001400004014030B5026A74
:10442000056A25F0100505624368846924F4E044B8
:1044300024F440740D6844EA052422F020028D68BB
:1044400042EA0512124DA84200D103E0114DA842E4
:1044500007D100BF22F08002CD6842EA051222F0A7
:1044600040020B4DA84202D00A4DA84209D123F4C4
:10447000806323F400634D6943EA85038D6943EA51
:104480008503436084614D688563026230BD00002E
:10449000000001400004014030B5026A056A25F4BD
:1044A000807505624368C46924F0700424F0030435
:1044B0000D682C4322F400728D6842EA0522124DE9
:1044C000A84200D103E0114DA84207D100BF22F459
:1044D0000062CD6842EA052222F480620A4DA842B9
:1044E00002D00A4DA84209D123F4805323F400538B
:1044F0004D6943EA05138D6943EA05134360C461BE
:104500004D68C563026230BD0000014000040140F7
:1045100030B5036A056A25F4805505624468C269AE
:1045200022F4E04222F440720D6842EA052223F4AC
:1045300000538D6843EA0533084DA84202D0084D68
:10454000A84204D124F480444D6944EA85144460AF
:10455000C2614D680564036230BD00000000014087
:104560000004014030B50B461446026A056A25F086
:1045700001050562816921F0F00141EA041122F090
:104580000A021A438161026230BD30B50B461446FF
:10459000026A056A25F010050562816921F47041FF
:1045A00041EA043122F0A00242EA03128161026270
:1045B00030BD70B50446A56B0020E8852846FEF79F
:1045C000B4FE70BD00BF00BF02680C3252E8002F7D
:1045D00022F4907102680C3242E80013002BF3D1F0
:1045E00000BF00BF00BF0268143252E8002F22F063
:1045F00001010268143242E80013002BF3D100BF1E
:10460000016B01290ED100BF00BF02680C3252E8D5
:10461000002F22F0100102680C3242E80013002B38
:10462000F3D100BF202180F84210002101637047C0
:1046300010B504462068C06820F040002168C860BA
:10464000202084F841002046FFF7A2F9002010BD89
:10465000F8B504460025002694F84200222873D1BC
:10466000A068B0F5805F0BD1206948B9A66A2068C0
:104670004068C0F308003080A06A801CA06214E08B
:10468000A56AA068B0F5805F03D0A06828B920694A
:1046900018B920684068287004E02068406800F07D
:1046A0007F002870A06A401CA062E08D401E80B28E
:1046B000E085002846D12068C06820F020002168ED
:1046C000C8602068C06820F480702168C8602068D5
:1046D000406920F0010021684861202084F84200F0
:1046E00000206063206B012826D10020206300BFDA
:1046F00000BF21680C3151E8001F21F01000216833
:104700000C3141E80002002AF3D100BF20680068A4
:1047100000F0100010280AD100BF0020009020688F
:104720000068009020684068009000BF00BFA18D25
:104730002046FEF7F9FD02E02046FFF7EBF80020E7
:10474000F8BD01E00020FBE70220F9E72DE9F84F72
:1047500004462068006920F44050E168084321685D
:1047600008612169A068084361690843E169084359
:1047700000902068C06849F20C61884300990843A2
:104780002168C8602068406920F44070A16908432E
:104790002168486176492068884203D075492068BD
:1047A000884203D1FDF760FE814602E0FDF74CFE32
:1047B0008146E069B0F5004F6CD102206168A0FB32
:1047C000015003461920A9FB007001462A463846CD
:1047D000FBF756FD6421B0FBF1F04FEA001A02200E
:1047E0006168A0FB01510B461920A9FB00712A4604
:1047F0003846FBF745FD834602206168A0FB015067
:1048000003461920A9FB00712A463846FBF738FDFC
:104810006421B0FBF1F000EBC00101EB0010ABEB49
:104820008000322101EBC0006421B0FBF1F000F008
:10483000F8000AEB400A02206168A0FB0150034621
:104840001920A9FB007001462A463846FBF718FDDF
:10485000834602206168A0FB015003461920A9FB92
:1048600000712A463846FBF70BFD6421B0FBF1F0DE
:1048700000EBC00101EB0010ABEB8000322101EB3B
:10488000C0006421B0FBF1F000F007005044216843
:1048900088606AE004206168A0FB0150034619208B
:1048A000A9FB007001462A463846FBF7E9FC824620
:1048B00004206168A0FB015003461920A9FB007089
:1048C00001462A463846FBF7DBFC6421B0FBF1F0D9
:1048D00000EBC00101EB0010AAEB8000322101EBDC
:1048E00000106421B0FBF1F000F0F00A04206168D0
:1048F000A0FB017003461920A9FB00513A46284647
:10490000FBF7BEFC6421B0FBF1F00AEB001A0420B7
:104910006168A0FB01510B461920A9FB00712A46D2
:104920003846FBF7ADFC834604206168A0FB0150CC
:1049300003461920A9FB007001462A463846FBF7BA
:104940009FFC6421B0FBF1F000EBC00101EB001013
:10495000ABEB8000322101EB00106421B0FBF1F0E1
:1049600000F00F00504421688860BDE8F88F000017
:10497000001001400014014010B5034699629A8569
:10498000DA8500205864222083F84200186928B193
:104990001868C06840F480701C68E060186840695E
:1049A00040F001001C6860611868C06840F0200099
:1049B0001C68E060002010BD014691F841002128EC
:1049C00028D18868B0F5805F0BD1086948B90A6AB8
:1049D0001088C0F308000B685860086A801C0862E1
:1049E00005E00B6A581C086218780B685860C88C80
:1049F000401E80B2C88458B90868C06820F08000A2
:104A00000B68D8600868C06840F040000B68D86048
:104A1000002070470220FCE710B50248FEF786FC34
:104A200010BD00006814002008B541480068006807
:104A300000F0200060B100BF002000903C480068FA
:104A4000006800903A4800684068009000BF6EE03F
:104A50003848006800F01000002868D000BF00202F
:104A60000090334800680068009031480068406852
:104A7000009000BF00BF30480068006800F40020CC
:104A800058BB2D480068006820F001002A490968D9
:104A90000860294800684068C0F124002749088060
:104AA000242025490968486023480068006840F4CC
:104AB00000202149096808601F480068006840F02C
:104AC00001001D49096808601C48008812282ED181
:104AD0001B491C4801F010FA29E0174800680068DB
:104AE00020F0010014490968086013480068406814
:104AF000C0F124001149088024200F49096848604A
:104B00001148806A20F400200F4988620A48006832
:104B1000006840F0010008490968086007480088FB
:104B2000122804D106490748243001F0E5F908BDF0
:104B30006814002000480040F81400206A0100209A
:104B4000346500204A6500200060024010B502482C
:104B5000FEF7ECFB10BD0000B014002000BFFEE724
:104B600010B540F2FA63034A00210348FEF72CFA1D
:104B700010BD0000685300201813002010B54FF43A
:104B80008973034A08210348FEF71EFA10BD00008E
:104B90005C6100206013002010B5044624B9002198
:104BA0000548FEF737FB05E0012C03D10821034837
:104BB000FEF730FB10BD000018130020601300202A
:104BC0002DE9F04F87B00746884691461C46DDF830
:104BD00040B04FF0000A10E008F0800008B18620D5
:104BE00000E03B2001A901F80A004FEA48604FEAC3
:104BF00010680AF101001FFA80FABAF1080FEBDB26
:104C000000250DE007F0800008B1862100E03B217F
:104C100001AA05F1080011547806070E681C85B238
:104C2000082DEFDB00260FE009F0800008B1862197
:104C300000E03B2101AA06F1100011544FEA49603F
:104C40004FEA1069701C86B2082EEDDBBBF1000F35
:104C500029D100210FE000200AE001AA125C01EB3B
:104C6000410300EBC303DFF89CC02CF81320401C69
:104C70001828F2DB491CA142EDDB04EB4401C8001B
:104C800004E000211F4A22F81010401C04EB4401EC
:104C9000FA2202EBC1018142F3DC0120FFF77CFF25
:104CA000FFF75EFF2BE0BBF1010F28D100210FE0E1
:104CB00000200AE001AA125C01EB410300EBC303F0
:104CC000DFF844C02CF81320401C1828F2DB491CE4
:104CD000A142EDDB04EB4401C80004E000210A4AD4
:104CE00022F81010401C04EB4401FA2202EBC1012F
:104CF0008142F3DC0020FFF74FFFFFF73FFF07B0D3
:104D0000BDE8F08F685300205C61002003B4019877
:104D10004100009850EAC12018BF04204A0D18BF76
:104D200040F0010040F2FF72B2EB515F08BF40F06B
:104D30000200012808BF052002B070470248006841
:104D4000C0F30220704700000CED00E010B5002811
:104D500004DB0A07130E054A135406E00A07140E73
:104D6000034A00F00F031B1FD45410BD00E400E001
:104D700018ED00E00000000010B52F499FED2C1B3E
:104D80002DED020B84B0059820F000408842DCBF76
:104D900000209DED040B32DD2849884209D104989A
:104DA00040B94FF0010000F06FFC00F03DFC06B090
:104DB00010BD05DB9DED040B00F02AFC06B010BD14
:104DC00068469DED040B00F03BF810F0030011D095
:104DD000012818D09DED021B9DED000B02281AD072
:104DE00000F04AFA51EC100B81F0004106B041ECA2
:104DF000100B10BD9DED021B9DED000B012000F07E
:104E00006FFB06B010BD9DED021B9DED000B00F089
:104E100033FA06B010BD012000F062FB51EC100B1C
:104E200081F0004106B041EC100B10BD0000000005
:104E30000000000000000000FB21E93F0000F07FBF
:104E40002DE9F14F04462DED020B2DED088B8AB0B4
:104E50009FEDE70B80ED020B139EE74826F000451F
:104E600085420ADC9DED120B002084ED000B0AB098
:104E7000BDEC088B03B0BDE8F08FE0489FEDE0ABE0
:104E80009FEDE1BBA84247DDE14F9FEDE39B9FED26
:104E9000E48B9DED120B53EC1A2B51EC100B002EF2
:104EA0001CDDFBF7F6FA41EC100BBD4208D053ECC9
:104EB0001B2B51EC100BFBF7ECFAC4E900010BE0E3
:104EC00053EC192B51EC100BFBF7E3FA53EC182BB6
:104ED000FBF7DFFAC4E900010120C8E7FBF738FA65
:104EE00041EC100BBD4208D053EC1B2B51EC100BC6
:104EF000FBF72EFAC4E900010BE053EC192B51EC3F
:104F0000100BFBF725FA53EC182BFBF721FAC4E939
:104F100000014FF0FF30AAE7C348A84279DB9DEDBE
:104F2000120B51EC100B00F0E7FB41EC180B9FED5E
:104F3000C00B53EC102BFBF7B2FA9FEDBF1B53ECE9
:104F4000112BFBF705FAFBF79DFC0746FBF788FBE7
:104F500041EC190B53EC1A2BFBF7A1FA53EC182B6D
:104F6000FBF79AFA41EC180B53EC1B2B51EC190B85
:104F7000FBF795FADFF8C8A241EC100B4FEA155881
:104F80000125FA4453EC102B51EC180BFBF781FA76
:104F9000032DC4E900013DD0C1F30A5005EB4511D2
:104FA000A8EB00001139814234DA0AEB051BB0EEA0
:104FB00048AA9BED000BF0EE68AA53EC102B51ECC5
:104FC000190BFBF76CFA41EC1B0B51EC1A0B53EC71
:104FD0001B2BFBF75EFA41EC180B51EC1A0B53EC50
:104FE000182BFBF756FA53EC1B2BFBF752FA9BEDF1
:104FF000020B41EC1A0B53EC102B51EC190BFBF785
:105000004EFA53EC1A2BFBF744FA41EC100B6D1CD3
:10501000B8E70EE0002EA8BF3846BFF628AF94EDE3
:10502000000B51EC100B81F00041C4E90001784203
:105030001DE7C6F3130040F4801EC6F30A50A0F229
:10504000F530471100F01F05C5F12000DDF848B02C
:1050500008900020069007900520EC467949002D25
:1050600007EB0002794408BF51F8221009D051F82B
:10507000223001EB8201AB404A68089922FA01F123
:105080001943A1FB0E26A1FB0B131A449A4234BF0D
:105090000123002303EB06080CEB8003D3E901A6F0
:1050A0000E448E4234BF0121002192448A4411B142
:1050B000924502D903E0924501D2012100E000218E
:1050C000C3E901A641444CF82010011EA0F10100E3
:1050D000C4DC029800F10050850F0298DDE90367F7
:1050E0008000DDF81480FBF7BBFA41EC1A0B304668
:1050F000FBF7C7FA9FED541B53EC112BFBF7CFF9CD
:1051000041EC1B0B3846FBF7BCFA9FED511B53ECEF
:10511000112BFBF7C4F941EC180B4046FBF7B1FA31
:105120009FED4D1B53EC112BFBF7B9F941EC190B1B
:1051300051EC180B53EC192BFBF70AF953EC1B2B12
:10514000FBF706F953EC1A2BFBF702F9CDE908013E
:10515000002008909DED080B53EC1A2B51EC100B1E
:10516000FBF797F953EC1B2BFBF793F953EC182B38
:10517000FBF78FF953EC192BFBF78EF99FED381BDA
:1051800053EC112BFBF78BF99FED370B41EC180B10
:1051900053EC102B9DED080B51EC100BFBF77FF936
:1051A00053EC182BFBF7D4F89FED310B41EC180BA7
:1051B00053EC102B9DED080B51EC100BFBF76FF926
:1051C00053EC182BFBF7C4F841EC100B139810F0BC
:1051D000004F06D06D4251EC100B81F0004141ECC4
:1051E000100B284684ED000B41E600000000000093
:1051F0000000000000000000FB21E93F7CD90240D4
:1052000000004054FB21F93F3163621A61B4D03D84
:10521000FB21F93F000000000000601A61B4D03D9E
:105220007370032E8A19A33BFB2139410000000053
:1052300083C8C96D305FE43F000000000000E03F1C
:105240005A240000A8230000000000000000103EC7
:10525000000000000000103C000000000000103AB8
:10526000182D4454FB21F93D3326A611460B113C61
:1052700000000054FB21F93D10B52DED040B2DED80
:10528000088B82B0B0EE419AF0EE619A0B9820F054
:1052900000449FED4BABB4F1795F11DA9DED0A0B41
:1052A00051EC100BFBF7EEFA002801BFB0EE4A0AF2
:1052B000F0EE6A0A02B0BDEC088B04BF04B010BD6A
:1052C0009DED0A0B53EC102B51EC100BFBF7E7F89C
:1052D00041EC180B3C480621B0EE480AF0EE680A93
:1052E000784400F081F853EC182B51EC100BFBF7CD
:1052F000D6F89DED0A0B41EC1B0B53EC192B51EC2E
:10530000100BFBF7CCF841EC190B53EC1B2B51ECB9
:10531000180BFBF7C4F853EC192BFBF7BAF89FED09
:105320002C0B41EC190B53EC102B51EC180BFBF729
:10533000B6F841EC100B2848844210DA53EC192BD4
:1053400051EC100BFBF7A5F853EC1A2BFBF7A4F864
:1053500041EC100B02B0BDEC088B04B010BD1F482F
:10536000A042BCBF9FED1E1B8DED001B06DBA4F50C
:1053700000100190002000909DED001B51EC100BDF
:1053800053EC112BFBF785F89DED000B41EC180B4E
:1053900053EC102B51EC1A0BFBF77BF841EC1A0B7A
:1053A00053EC192B51EC180BFBF773F853EC1A2B39
:1053B000FBF772F841EC100BCCE700000000000096
:1053C000000000000000F03FCC20000000000000C2
:1053D000000000000000E03F3333D33F0000E93F0E
:1053E000000000000000D23F70B504462DED028B96
:1053F0004D1E00EBC500B0EE408AF0EE608A90EDE5
:10540000000B35F0060017D053EC182B51EC100BA5
:10541000FBF745F841EC100B6D1E04EBC50090ED59
:10542000001B51EC100B53EC112BFAF791FF41ECE0
:10543000100B35F00600E7D1022D36D0042D1CD01C
:10544000062D1CBFBDEC028B70BD53EC182B51EC2C
:10545000100BFBF724F894ED0A1B53EC112BFAF711
:1054600077FF53EC182BFBF71AF894ED081B53EC5D
:10547000112BFAF76DFF41EC100B53EC182B51EC8C
:10548000100BFBF70CF894ED061B53EC112BFAF7FD
:105490005FFF53EC182BFBF702F894ED040B53EC71
:1054A000102BFAF755FF41EC100B53EC182B51EC75
:1054B000100BFAF7F4FF94ED021B53EC112BFAF7E3
:1054C00047FF53EC182BFAF7EAFF94ED001B53EC5F
:1054D000112BFAF73DFFBDEC028B41EC100B70BDB8
:1054E00031B504462DED040B2DED0A8BB0EE41BA1B
:1054F000F0EE61BA0B989DED0A0B20F00040B0F180
:10550000795F0DDA51EC100BFFF700FC042808BF9F
:1055100000F09AF89DED0A0BBDEC0A8B05B030BD8A
:1055200053EC102B51EC100BFAF7B9FF41EC180BB0
:105530009DED0A0B53EC182B51EC100BFAF7AFFF53
:1055400041EC190B2C48B0EE480AF0EE680A052130
:105550007844FFF749FF9FED2ACBB0EE40AAF0EE6A
:1055600060AA9CB353EC1C2B51EC190BFAF797FF74
:1055700041EC1C0B53EC1A2B51EC190BFAF78FFF73
:105580009FED210B41EC190B53EC102B51EC1B0B35
:10559000FAF785FF53EC192BFAF77BFF53EC182B26
:1055A000FAF77DFF53EC1B2BFAF773FF53EC1C2B20
:1055B000FAF76FFF9DED0A1B53EC112BFAF76CFF06
:1055C000BDEC0A8B05B041EC100B30BDFFE753EC8E
:1055D0001A2B51EC180BFAF762FF53EC1C2BFAF75D
:1055E000B7FE53EC192BFAF75AFF9DED0A1B53EC4B
:1055F000112BFAF7ADFEE3E7541F00000000000096
:10560000495555555555C5BF000000000000E03F05
:1056100010B553EC102B51EC100BFAF799FE41EC3E
:10562000100B10BD000000009FED050B10B553ECF2
:10563000102B51EC100BFAF7A4FF41EC100B10BD2E
:1056400000000000000000009FED050B10B553ECBA
:10565000102B51EC100BFAF722FF41EC100B10BD90
:10566000000000000000001002E008C8121F08C17E
:10567000002AFAD170477047002001E001C1121FD3
:10568000002AFBD170470000014908607047000004
:105690007401002000B9704700BFFCE700B58BB073
:1056A000012009900020079001200890002001901F
:1056B0000290039004900690059001A90C48FBF716
:1056C00055FC0B48FCF783F902210948FBF794FBD2
:1056D0000E200A90069001A90648FBF747FC0548F2
:1056E000FCF775F902210348FBF786FB0BB000BD00
:1056F000C8120020F012002082B0CDE9000121F094
:10570000004001909DED000B02B051EC100B704772
:105710004168B1F9001000EE101AB8EEC00A80ED31
:10572000030A90ED030A9FED071AC0EE010A9FEDF0
:10573000060A80EE801AB0EE000A21EE000A80ED23
:10574000180A70470000C8420000704200487047C5
:105750004E640020FCF7DCFCFEF7ACFCFEF704FA1C
:10576000FEF770F9FEF72AF9FEF74AF9FEF7FCFAA0
:10577000FEF764FBFEF77EFBFEF78AFAFBF7E2F822
:10578000FFF78CFFFEF7B2F900F034F800BFFEE738
:1057900001460020842901D0CA1C10447047000033
:1057A00010B50446FFF7D2FF6060DFED090A9FEDF8
:1057B000080A084A002104F11800FEF799FB9FED42
:1057C000040A84ED1A0A9FED040A84ED1B0A10BD39
:1057D00000007A44A473000800007AC470B504463F
:1057E00025460DB1294600E00121084601F02AFABC
:1057F000002070BD10B501F053FA002010BD7FB538
:1058000004460D46606998B1A06988B1B4F90800F2
:10581000FFF7BEFF0646D4E90510CDE9006102900E
:105820002B462269D4E9001001F0E0FB039013E05D
:10583000B4F90800FFF7ACFF064603A8CDE9006005
:10584000238A9AB22B46D4E9001001F09DFB01286F
:1058500002D0002004B070BD0398FBE72DE9F041B1
:1058600005460E461C4807681C480068001D01F0EC
:10587000E4F850B91948006890F82C1001208840CD
:1058800017490968814316480160681C38B936B168
:1058900012480168091D134801F01AF91AE07C1931
:1058A0000E4800684460BC4207D20C480168091DDC
:1058B0000D48006801F0F2F80CE008480168091D85
:1058C0000A48006801F0EAF809480068844201D2F9
:1058D00007480460BDE8F081380000202400002063
:1058E0003C000020541700202C000020280000203D
:1058F0005400002010B5044601F0F6F82348006873
:10590000401C224908602248006840B920480460D1
:105910000846006801280DD100F03EF90AE01D4854
:10592000006838B91A480068C06AE16A884201D83C
:105930001748046018480068401C1749086094F82C
:105940002C10012088401549096808431349086054
:10595000E16A01EB8101124A02EB8100211D01F095
:10596000B7F801F0EBF80B48006868B10848006828
:10597000C06AE16A884207D24FF080500949086046
:10598000BFF34F8FBFF36F8F10BD000034000020B6
:105990002400002040000020500000203C00002097
:1059A0007816002004ED00E010B516E001F09CF838
:1059B0000C48C068C468201D01F03FF80A48006820
:1059C000401E0949086009480068401E07490860F0
:1059D00001F0B4F8204600F00BF8044800680028F5
:1059E000E4D110BD4017002034000020300000201A
:1059F00010B5044694F8510030B9206B01F0BCF8A2
:105A0000204601F0B9F81AE094F85100012803D1BA
:105A1000204601F0B1F812E094F85100022801D1BB
:105A2000012000E0002050B900BF502080F3118811
:105A3000BFF34F8FBFF36F8F00BF00BFFEE710BDF6
:105A400030B54FF47053174800F007042CB1C01D57
:105A500020F00700134C041B1B1B0246124C226053
:105A60000024114D6C60D018083820F007000F4C4E
:105A7000206000240D4D2D686C600C4D2D682C604D
:105A80001146441A4C60094C24680C60084D4C685F
:105A90002C60084D4C682C604FF00044064D2C6083
:105AA00030BD000068170020600000206800002062
:105AB000700000206C0000207C00002000BFFFF779
:105AC00073FF064800680128F9D94FF08050044957
:105AD0000860BFF34F8FBFF36F8FF0E77816002099
